:020000040800F2
:1000000000A00020C12A000855290008572900082F
:10001000592900085B2900085D290008000000003C
:100020000000000000000000000000005F29000840
:100030006129000800000000632900086529000804
:10004000112B0008112B0008112B0008112B0008A0
:10005000112B0008112B0008112B0008112B000890
:10006000112B0008112B0008112B00086D29000826
:10007000112B0008112B0008112B0008112B000870
:10008000112B0008112B0008112B0008112B000860
:10009000112B0008112B0008112B0008112B000850
:1000A000112B0008112B0008112B0008112B000840
:1000B000112B0008112B0008112B0008112B000830
:1000C000112B0008112B0008112B0008112B000820
:1000D000112B0008112B0008112B0008112B000810
:1000E000112B0008112B0008112B0008112B000800
:1000F000112B0008112B0008112B0008112B0008F0
:10010000000000000000000000000000112B0008AB
:10011000112B0008112B0008112B0008112B0008CF
:10012000112B0008112B0008112B0008112B0008BF
:10013000112B0008112B0008000000000000000037
:10014000112B0008112B0008112B000800000000E3
:10015000000000000000000000000000000000009F
:100160000000000000000000112B0008112B000807
:10017000112B00080000000000000000000000003B
:0801800000000000112B000833
:1001900010B5054C237833B9044B13B10448AFF3C1
:1001A00000800123237010BD7404002000000000B3
:1001B0008433000808B5034B1BB103490348AFF370
:1001C000008008BD0000000078040020843300088F
:1001D00001F0FF01102A2BDB10F0070F08D010F8F8
:1001E000013B013A8B422DD010F0070F42B3F6D1FC
:1001F000F0B441EA012141EA014122F007047FF015
:1002000000070023F0E80256083C85EA010586EA6B
:10021000010685FA47F5A3FA87F586FA47F6A5FAA7
:1002200087F68EB9EED1F0BC01F0FF0102F00702B3
:1002300032B110F8013B013A83EA010313B1F8D15E
:100240000020704701387047002D06BF354603383F
:10025000073815F0010F07D1013015F4807F02BF78
:10026000013015F4C03F0130F0BC0138704700BFC9
:1002700010B504460E4B18784FF47A73B3FBF0F3C5
:100280000C4A1068B0FBF3F000F082FF68B90F2C45
:1002900001D901200AE0002221464FF0FF3000F092
:1002A00037FF034B5C60002000E0012010BD00BF61
:1002B000000000200C04002008B5074A136843F032
:1002C00010031360032000F011FF0020FFF7D0FFA0
:1002D00002F028FB002008BD00200240034A1168FC
:1002E000034B1B780B441360704700BFA40400202D
:1002F00000000020014B1868704700BFA4040020D4
:1003000038B50446FFF7F6FF0546B4F1FF3F02D0CB
:10031000044B1B781C44FFF7EDFF401BA042FAD3AF
:1003200038BD00BF0000002070477047704738B5E7
:100330000268936803F00303012B01D0002038BD4D
:10034000136813F0010F2FD0936803F00D03012BF6
:1003500009D0436C43F010034364836C43F0010302
:1003600083640120EBE70446936843F00203936043
:10037000036803221A60FFF7BDFF054623689B68E8
:1003800013F0010F0ED0FFF7B5FF401B0228F5D97F
:10039000636C43F010036364A36C43F00103A36434
:1003A0000120CCE70020CAE70020C8E703689A686C
:1003B00012F00C0F62D070B50446DA6812F0007FBC
:1003C00002D0C269012A38D060290CD023689A680B
:1003D00012F0040F07D09A6812F0020F03D19A6846
:1003E00042F010029A600C290CD023689A6812F02F
:1003F000080F07D09A6812F0020F03D19A6842F0F2
:1004000020029A60602935D06C2931D10C25FFF784
:1004100071FF064623689B682B422DD0FFF76AFFC9
:10042000801B0B28F6D9636C43F010036364A36C44
:1004300043F00103A36401201FE08269012AC3D1B4
:100440000022196811F0400F0ED10D498A4201D8DF
:100450000132F6E7636C43F010036364A36C43F06E
:100460000103A364012008E040221A600C21ADE7DB
:100470000425CCE70825CAE7002070BD002070479E
:10048000FF93090038B50268936803F00303012B5A
:100490000DD09168184B19420FD0436C43F01003F4
:1004A0004364836C43F001038364012038BD136807
:1004B00013F0010FEDD00020F8E70446936843F0F5
:1004C00001039360FFF716FF054623681B6813F0CE
:1004D000010F0ED1FFF70EFF401B0228F5D9636C08
:1004E00043F010036364A36C43F00103A364012091
:1004F000DCE70020DAE700BF3F00008008B5406A73
:10050000436C43F040034364836C43F0040383640F
:10051000FFF70CFF08BD08B5406AFFF706FF08BDEE
:1005200008B5436A5A6C12F0500F03D0DB6B1B6B9B
:10053000984708BD5A6C42F400725A641A68D2682F
:1005400012F4406F0DD1DA695AB95A6C22F48072F4
:100550005A645A6C12F4805F03D15A6C42F0010263
:100560005A641846FFF7E0FEE3E7000030B597B0A5
:1005700000230093002800F02E810446436C13F002
:10058000100F52D1436CABB1002023689A6812F06F
:10059000805F03D09B6813F0005F47D0636C23F04B
:1005A000120343F010036364A36C43F00103A364DC
:1005B00001203BE083640365C36480F8403002F0AF
:1005C0008FF823689B6813F0805F01D00020DCE780
:1005D0002046FFF7ACFE636C13F0100FD5D1002856
:1005E000D3D1636C23F4885323F0020343F0020356
:1005F00063642268936823F0405393602268936891
:1006000043F080539360754B1B68754AA2FB03232C
:100610009B0C03EB83035A00009202E0009B013B1A
:100620000093009B002BF9D1AFE70020636C13F01F
:10063000100F40F0C780002840F0C48023689A68FB
:1006400012F0040240F0BE80616C21F4817141F02F
:1006500002016164B3F1A04F15D062498B420FD003
:100660006149B3F1A04F10D05E4DAB4268D05F4DF1
:10067000AB4269D05E4DAB4269D00023019307E0E5
:1006800001F50071EDE75B49EBE703F5807301933A
:100690002568AB6803F00303012B5BD0019B23B1FA
:1006A0009D6805F00305012D59D08B6823F4403374
:1006B00065682B438B60E1694B03A56B012D01D06D
:1006C0004FF480521343E2681343A2681343626AF3
:1006D000012A49D0E26A012A0AD02168434DA94281
:1006E00055D005F58075A94251D0216B0A431343BB
:1006F0002268916811F00C0F0BD1D16821F4804170
:1007000021F00201D160A169626B520042EA81329C
:1007100013432168CD68384A2A401343CB602369CC
:10072000012B46D02268136B23F00F0313630023C1
:10073000A364636C23F0030343F00103636448E0A4
:100740004FF0A0430193A3E7294B0193A0E7274B68
:1007500001939DE72B6813F0010FACD19EE71B6856
:1007600013F0010FA7D1A0E731B9A26A013A43EA19
:10077000424343F48033ADE7626C22F0220242F040
:1007800020026264A26C42F00102A264A2E7B2F508
:10079000307F08D0B2F5807F08D0B2F5E07FA4D1D9
:1007A0004FF48072A1E74FF4E0729EE74FF430728D
:1007B0009BE721680B6B23F00F03226A013A134376
:1007C0000B63B4E7636C23F0120343F0100363641C
:1007D000012017B030BD0120FBE700BF0C04002052
:1007E00083DE1B430001005000070050000400504E
:1007F000000500500003005007C0F0FF03689B682D
:1008000013F0040F40F0AF8090F84030012B00F05F
:10081000AD8010B50446012380F84030FFF732FE6A
:100820000346002840F09A80626C22F4706222F045
:10083000010242F4807262642268B2F1A04F33D0A8
:100840004B498A4230D04B49896811F01F0F30D193
:10085000616C21F480116164D16811F0007F05D0D2
:10086000616C21F4405141F480516164616C11F478
:10087000805F3ED0A16C21F00601A164002184F8C4
:1008800040101C2111602268B2F1A04F34D03849C9
:100890008A4231D03749896811F01F0F31D19168F0
:1008A00041F0040191605CE03349896811F01F0F49
:1008B000CED0B2F1A04FCBD030498A42C8D0616CC3
:1008C00041F4801161642A498A420CD02B49C968DD
:1008D000C1F340610029C9D0616C21F4405141F459
:1008E00080516164C2E74FF0A041C968C1F3406123
:1008F000F0E70021A164C1E71F49896811F01F0FCB
:10090000CDD0B2F1A04F09D019498A4206D0194979
:10091000896801F01F01052906D1C0E716498968D9
:1009200001F01F010529BAD0B2F1A04F09D010493A
:100930008A4206D00F49896801F01F01092906D1B2
:10094000ADE70D49896801F01F010929A7D0B2F16F
:10095000A04FA4D009498A4203D1A0E7002284F81D
:100960004020184610BD0223184670470223FBE7BB
:100970000001005000070050000300500004005028
:1009800090F84030012B1DD010B50446012380F8AB
:1009900040306C21FFF70AFD034620B1002284F8A5
:1009A0004020184610BD2046FFF7C1FC0346002832
:1009B000F4D1626C22F4885222F0010242F001026A
:1009C0006264EBE70223184670470000F0B597B069
:1009D00090F84040012C72D0012480F84040046817
:1009E000A56815F0040F6CD1B4F1A04F4AD0374B75
:1009F0009C424AD000230193019B002B49D017460B
:100A00000E460446FFF73EFD054600284AD0002D5D
:100A100051D1626C2E4B134043F48073636423689E
:100A2000DB6813F0007F05D0636C23F4405343F47C
:100A300080536364002384F84030A364E36B254A49
:100A40009A62E36B244ADA62E36B244A1A632368EE
:100A5000B3F1A04F2DD0224A934228D021491C2225
:100A60001A602268536843F0100353603B463246D5
:100A70000C31E06B00F006FC2268936843F004033D
:100A800093601FE0164B0193B6E703F58073019363
:100A9000B2E7436C43F020034364002380F8403006
:100AA00001250FE001A8FFF7EDFC0546AFE70E4971
:100AB000D5E70D49D3E7002384F8403002E0022552
:100AC00000E00225284617B0F0BD00BF000400502A
:100AD000FEF0EFFF2105000817050008FD040008DF
:100AE00000010050000700500003005030B597B0DF
:100AF00090F84030012B72D00446012380F840303A
:100B00006C21FFF753FC0546002862D12368B3F13E
:100B1000A04F0AD0334A93420BD000230193019B8C
:100B200053B1FFF7E7FB054614E003F5807301932B
:100B3000F5E72D4B0193F2E7636C43F040036364E8
:100B4000002384F84030012546E0FFF7D3FB401B2B
:100B50000B282BD823689B6813F0040FF5D1019B59
:100B60009B6813F0040FF0D1E06B00F0C5FB054665
:100B700018B1636C43F0400363642268536823F048
:100B800010035360DDB92046FFF7D1FB012820D0C8
:100B900001A8FFF7CCFB01281BD0636C23F488531A
:100BA00023F0010343F00103636412E0636C43F03C
:100BB00010036364002384F8403001250CE02046D4
:100BC000FFF7B5FB01A8FFF7B2FB636C43F010031E
:100BD0006364002384F84030284617B030BD0225F6
:100BE000FAE700BF000400500005005030B496B092
:100BF0000022009290F84020012A00F0BB810346B9
:100C0000012280F840200068826812F0040F40F052
:100C1000A6814A68042A31D8046B02EB42025500CF
:100C20001F22AA4024EA02020C68AC40224302635D
:100C30001868826812F00C0F68D10A68092A4ED928
:100C4000846902EB42021E3A0725954024EA050416
:100C50008D6805FA02F22243826148691C68E268E5
:100C6000C2F3C102520000FA02F2086901380328F7
:100C700000F29580DFE800F040727D88092A0ED8E6
:100C8000446B02EB420255001E3D1F22AA4024EA9B
:100C900002020C6804FA05F52A434263C8E70E2AEB
:100CA0000ED8846B02EB420255003C3D1F22AA4045
:100CB00024EA02020C6804FA05F52A438263B7E7C6
:100CC000C46B02EB420255005A3D1F22AA4024EA9F
:100CD00002020C6804FA05F52A43C263A8E74469D6
:100CE00002EB42020725954024EA05048D6805FAC7
:100CF00002F222434261B0E7206E9F4D0540086832
:100D000042EA8062154345F000452566186882680E
:100D100002F00302012A75D0CA68012A78D0D0F8FF
:100D2000B0200D680124AC4022EA0402C0F8B020D3
:100D30001A68B2F1A04F00F096809048824200F00D
:100D400090808F4C0868102800F08F80112800F0E8
:100D5000A080122800F0A280002005E1606E864D80
:100D60000540086842EA8062154345F00045656623
:100D7000CCE7A06E804D0540086842EA80621543CA
:100D800045F00045A566C1E7E56E7B4828400D6843
:100D900042EA8562024342F00042E266B6E7226E12
:100DA00002F0F8420868B2EB806F1CD01868426EFF
:100DB00002F0F8420C68B2EB846F19D01868826EAA
:100DC00002F0F8420C68B2EB846F16D01868C26E5D
:100DD00002F0F8420C68B2EB846F97D1C26E22F039
:100DE0000042C26692E7226E22F000422266DDE7F0
:100DF000426E22F000424266E0E7826E22F000423C
:100E00008266E3E7026812F0010F85D00020ABE0B4
:100E1000D0F8B0200D680124AC402243C0F8B020C7
:100E20000A68092A0ED91D68A86902EB42021B3A1A
:100E30000724944020EA04008C6804FA02F202437A
:100E4000AA6175E71D686869013202EB4202072456
:100E5000944020EA04008C6804FA02F202436A61BA
:100E600066E7484C6EE7474C6CE7A56815F4000F41
:100E70007FF46CAFB2F1A04F16D0404882422CD024
:100E8000414882422DD0414882422DD00022019219
:100E90000DE0A56815F0807FECD05AE7A06810F44B
:100EA000800FE7D000205FE002F5807201921868A1
:100EB000826802F00302012A19D0019A22B19568D2
:100EC00005F00305012D1CD00A68102A1ED0112A36
:100ED00036D0122A3DD0002046E04FF0A0420192C9
:100EE000E5E72A4A0192E2E7274A0192DFE7026832
:100EF00012F0010FE1D05A6C42F020025A64012036
:100F000032E0126812F0010FF5D1DDE7B0F1A04F29
:100F1000DDD1A26842F40002A2601D4A12681D4998
:100F2000A1FB0212920C02EB82025100009102E03E
:100F3000009A013A0092009A002AF9D1002013E0A9
:100F4000B0F1A04FC5D1A26842F08072A26000202B
:100F50000AE0A26842F48002A260002004E05A6C19
:100F600042F020025A640120002283F8402016B08B
:100F700030BC70470220FAE700F0FF830001005008
:100F8000000700500003005000040050000500500E
:100F90000C04002083DE1B4370B497B00346026844
:100FA000B2F1A04F0BD04C48824249D04B4882420C
:100FB0004AD04B4882424AD00022019202E002F518
:100FC00080720192019A002A00F0828093F840001A
:100FD00001287FD0012083F840001868846814F04D
:100FE000040F6AD1946814F0040F66D1B0F1A04FD9
:100FF00032D0394CA0422DD03A480C68002C39D060
:10100000846824F460444D685E6B45EA46352C43A1
:1010100084601D68AC6804F00304012C1ED0946841
:1010200004F00304012C1FD0826822F4716222F0C4
:101030000F020C68896821430A438260002041E066
:101040004FF0A0420192BDE7254A0192BAE7234A38
:101050000192B7E72448D0E72348CEE72C6814F084
:10106000010FDCD000202DE0126812F0010FDBD060
:10107000002027E0816821F4604181601C68A1683C
:1010800001F0030101290CD0916801F0030101294D
:101090000DD0826822F4716222F00F02826000207B
:1010A00010E0216811F0010FEED000200AE0126874
:1010B00012F0010FEDD0002004E05A6C42F0200243
:1010C0005A640120002283F8402017B070BC70479A
:1010D0000120FAE70220F8E7000100500004005068
:1010E000000500500007005000030050074AD36875
:1010F00023F4E0631B041B0C000200F4E0601843BF
:1011000040F0BF6040F40030D060704700ED00E078
:1011100030B4174BDB68C3F30223C3F10704042C7C
:1011200028BF04241D1D062D18D9033B4FF0FF35A1
:1011300005FA04F421EA0401994005FA03F322EACE
:101140000303194300280BDB0901C9B200F1604019
:1011500000F5614080F8001330BC70470023E5E7DC
:1011600000F00F000901C9B2024B1954F4E700BFA7
:1011700000ED00E014ED00E000F01F024009012343
:101180009340024A42F82030704700BF00E100E07F
:101190000138B0F1807F0AD2064B5860064AF02130
:1011A00082F823100020986007221A6070470120FF
:1011B000704700BF10E000E000ED00E070B4066C86
:1011C000C56B0124B4406C60046863604368102BF5
:1011D00005D0036899600368DA6070BC70470368E3
:1011E0009A600368D960F8E702680C4B9A420AD902
:1011F0000B4B13440B4AA2FB03231B099B00036404
:10120000094BC3637047094B1344064AA2FB0323EF
:101210001B099B000364064BC3637047070402402D
:10122000F8FBFDBFCDCCCCCC00040240F8FFFDBFE5
:101230000000024020B310B50446022380F821309C
:1012400001680A6822F47F5222F030024368806805
:101250000343E06803432069034360690343A069D3
:101260000343E069034313430B602046FFF7BCFFD1
:101270000020A063012384F8213084F8200010BDF1
:101280000120704738B590F82040012C32D001245D
:1012900080F8204090F82140012C04D0002380F8F1
:1012A0002030022038BD0446022084F821000020AE
:1012B000A0632568286820F0010028602046FFF719
:1012C0007DFFE36A5BB12268136843F00E0313608D
:1012D0002268136843F0010313600020E2E72268EC
:1012E000136843F00A0313602268136823F00403B1
:1012F0001360EDE70220D5E7034601680A6822F093
:101300000E020A6001680A6822F001020A60026C9B
:10131000C06B012101FA02F2426083F82110002023
:1013200083F82000704738B5C36B1A6804682568D5
:10133000016C04238B40134213D015F0040F10D01E
:10134000236813F0200F03D1236823F004032360E4
:10135000016CC26B04238B405360C36A03B198478E
:1013600038BD02238B4013421AD015F0020F17D05C
:10137000236813F0200F06D1236823F00A032360AB
:10138000012380F82130016CC26B02238B40536033
:10139000002380F82030836A002BE1D09847DFE7F4
:1013A000082303FA01F11142DAD015F0080FD7D063
:1013B000236823F00E032360026CC16B012303FA40
:1013C00002F24A60836380F82130002380F82030E5
:1013D000036B002BC4D09847C2E70000F0B482B082
:1013E000002336E0042400E00024B4403C430235EE
:1013F0005B4E46F825405B4C2568D44304EA05065D
:101400004F6817F4803F01D042EA0506554D2E6023
:101410006D6804EA05064F6817F4003F01D042EA00
:101420000506504D6E60AD6804EA05064F6817F476
:10143000801F01D042EA05064A4DAE60ED682C409F
:101440004E6816F4001F01D042EA0504454AD460F4
:1014500001330A6832FA03F47ED001249C40224012
:10146000F6D04D68022D01D0122D10D1DE080836BD
:1014700050F826C003F00705AF000F25BD402CEA49
:10148000050C0D69BD4045EA0C0540F8265006687C
:101490005F000325BD40ED4305EA060C4E6806F0EB
:1014A0000306BE4046EA0C0606604E6806F1FF3CA5
:1014B000BCF1010F03D9112E01D0122E10D1866874
:1014C00005EA060CCE68BE4046EA0C068660466811
:1014D00026EA04044E68C6F300169E402643466082
:1014E000C46825408C68BC402C43C4604C6814F030
:1014F000805FADD01C4CA56945F00105A561A469CC
:1015000004F001040194019C9D08AE1C144C54F895
:10151000267003F00304A6000F24B44027EA040752
:10152000B0F1904F3FF460AF104CA0420ED004F5E4
:101530008064A0420CD004F58064A0420AD004F577
:101540008064A0423FF44EAF05244EE701244CE7EF
:1015500002244AE7032448E702B0F0BC704700BF0A
:101560000000014000040140001002400004004857
:10157000002800F0F58270B582B00446036813F0CD
:10158000010F3BD0B54B5B6803F00C03042B1ED05E
:10159000B24B5B6803F00C03082B13D06368B3F500
:1015A000803F68D0002B40F0928003F1804303F528
:1015B00004331A6822F480321A601A6822F48022F6
:1015C0001A605DE0A54B5B6813F4803FE6D04FF4F2
:1015D000003393FAA3F3A14B19684FF4003393FA45
:1015E000A3F3B3FA83F303F01F03012202FA03F318
:1015F0000B4203D06368002B00F0B482236813F021
:10160000020F00F0C680954B5B6813F00C0F00F0E2
:101610009C80924B5B6803F00C03082B00F08F80DA
:101620002369002B00F0F380012292FAA2F3B3FAAF
:1016300083F303F1845303F584139B001A60FEF7D0
:1016400059FE0546022393FAA3F3844B196802233B
:1016500093FAA3F3B3FA83F303F01F03012202FA10
:1016600003F30B4240F0C480FEF744FE401B022807
:10167000E8D9032083E2794A136843F48033136086
:10168000764AD36A23F00F03A1680B43D3626368E1
:10169000002B36D0FEF72EFE05464FF4003393FAAA
:1016A000A3F36E4B19684FF4003393FAA3F3B3FA24
:1016B00083F303F01F03012202FA03F30B429DD1CF
:1016C000FEF718FE401B6428E7D9032057E2B3F564
:1016D000A02F09D0614B1A6822F480321A601A6870
:1016E00022F480221A60CBE703F18043A3F53C3358
:1016F0001A6842F480221A601A6842F480321A6032
:10170000BEE7FEF7F7FD05464FF4003393FAA3F367
:10171000524B19684FF4003393FAA3F3B3FA83F3EF
:1017200003F01F03012202FA03F30B423FF466AFFA
:10173000FEF7E0FD401B6428E6D903201FE2474B7B
:101740005B6813F4803F7FF46BAF022393FAA3F33B
:10175000424B1968022393FAA3F3B3FA83F303F01D
:101760001F03012202FA03F30B4204D023699342C0
:1017700001D0012003E23948036823F0F8036169CE
:10178000F82292FAA2F2B2FA82F201FA02F21343BA
:101790000360236813F0080F00F08C80A369002B0E
:1017A00060D0012191FAA1F2B2FA82F22C4B1344DB
:1017B0009B001960FEF79EFD0546022393FAA3F2F3
:1017C00093FAA3F293FAA3F2244A516A93FAA3F389
:1017D000B3FA83F303F01F03012202FA03F30B426F
:1017E00068D1FEF787FD401B0228E6D90320C6E139
:1017F0001A48036823F0F8036169F82292FAA2F20A
:10180000B2FA82F201FA02F213430360C1E7012344
:1018100093FAA3F3B3FA83F303F1845303F5841328
:101820009B0000221A60FEF765FD0546022393FA2D
:10183000A3F30A4B1968022393FAA3F3B3FA83F3D1
:1018400003F01F03012202FA03F30B42A1D0FEF7BB
:1018500051FD401B0228E9D9032090E1001002400D
:1018600020819010012292FAA2F2B2FA82F2C04BC9
:1018700013449B0000221A60FEF73CFD054602233C
:1018800093FAA3F293FAA3F293FAA3F2B94A516A34
:1018900093FAA3F3B3FA83F303F01F03012202FACE
:1018A00003F30B4206D0FEF725FD401B0228E6D9C4
:1018B000032064E1236813F0040F00F0B380AD4B04
:1018C000DB6913F0805F20D1AA4BDA6942F08052C5
:1018D000DA61DB6903F080530193019B0125A64B7C
:1018E0001B6813F4807F12D0E368012B23D073BBF5
:1018F00003F1804303F504331A6A22F001021A62ED
:101900001A6A22F004021A621AE00025E7E79A4AEE
:10191000136843F480731360FEF7ECFC0646964BA5
:101920001B6813F4807FDFD1FEF7E4FC801B642882
:10193000F5D9032023E18F4A136A43F001031362B0
:10194000E368002B41D0FEF7D5FC06462BE0052BC3
:1019500009D0884B1A6A22F001021A621A6A22F030
:1019600004021A62ECE7834B1A6A42F004021A621C
:101970001A6A42F001021A62E2E77E4B196A0223F8
:1019800093FAA3F3B3FA83F303F01F03012202FADD
:1019900003F3194245D1FEF7ADFC801B41F28833B9
:1019A000984200F2E180022393FAA3F293FAA3F3A0
:1019B000B3FA83F35B0943F00203022BDDD0022369
:1019C00093FAA3F36B4B596AD9E7FEF793FC0646EB
:1019D00015E0684B196A022393FAA3F3B3FA83F371
:1019E00003F01F03012202FA03F3194219D0FEF794
:1019F00081FC801B41F28833984200F2B7800223B9
:101A000093FAA3F293FAA3F3B3FA83F35B0943F0D7
:101A10000203022BDDD0022393FAA3F3554B596A3C
:101A2000D9E7B5BBE369002B00F0A880514A5268A2
:101A300002F00C02082A00F0A480022B2FD04FF0F5
:101A4000807393FAA3F3B3FA83F303F1845303F59A
:101A500084139B0000221A60FEF74CFC04464FF0F2
:101A6000007393FAA3F3434B19684FF0007393FA92
:101A7000A3F3B3FA83F303F01F03012202FA03F383
:101A800019426BD0FEF736FC001B0228E7D9032071
:101A900075E0384AD36923F08053D361C2E74FF031
:101AA000807393FAA3F3B3FA83F303F1845303F53A
:101AB00084139B0000221A60FEF71CFC05464FF0C1
:101AC000007393FAA3F32B4B19684FF0007393FA4A
:101AD000A3F3B3FA83F303F01F03012202FA03F323
:101AE000194206D0FEF706FC401B0228E7D9032066
:101AF00045E020494B6823F47413626A206A02436C
:101B000013434B604FF0807393FAA3F3B3FA83F35C
:101B100003F1845303F584139B0001221A60FEF73E
:101B2000E9FB04464FF0007393FAA3F3114B1968D5
:101B30004FF0007393FAA3F3B3FA83F303F01F0398
:101B4000012202FA03F3194206D1FEF7D3FB001B70
:101B50000228E7D9032012E0002010E000200EE068
:101B60000120704701200AE0032008E0032006E07E
:101B7000208190100010024000700040002002B050
:101B800070BD0120FBE700BF10B4174B5C6804F088
:101B90000C03082B26D104F470124FF4701393FA3F
:101BA000A3F3B3FA83F322FA03F31049C85C0E4B94
:101BB000DB6A03F00F030F2292FAA2F2B2FA82F26A
:101BC000D3400B441A7C14F4803F05D1084B03FB2F
:101BD00000F05DF8044B7047064BB3FBF2F300FBDB
:101BE00003F0F6E70348F4E7001002409C330008D6
:101BF00000093D0000127A00002800F0C08070B596
:101C00000446614B1B6803F007038B420CD25E4A0B
:101C1000136823F007030B431360136803F00703F3
:101C20008B4201D0012070BD236813F0020F06D053
:101C3000564A536823F0F003A068034353600D46EF
:101C4000236813F0010F5AD06368012B2DD0022BAB
:101C500040D0022292FAA2F24C4A1068022292FA72
:101C6000A2F2B2FA82F202F01F02012101FA02F29C
:101C7000104200F0868045494A6822F0030213436F
:101C80004B60FEF737FB0646404B5B6803F00C03E6
:101C90006268B3EB820F32D0FEF72CFB801B41F25F
:101CA00088339842F0D90320BDE74FF4003292FA0E
:101CB000A2F2364A10684FF4003292FAA2F2B2FA57
:101CC00082F202F01F02012101FA02F20242D2D195
:101CD0000120A8E74FF0007292FAA2F22B4A106896
:101CE0004FF0007292FAA2F2B2FA82F202F01F02F0
:101CF000012101FA02F21042BDD1012093E7224BEB
:101D00001B6803F00703AB420CD91F4A136823F08A
:101D100007032B431360136803F00703AB4201D0A2
:101D2000012080E7236813F0040F06D0174A536898
:101D300023F4E063E1680B435360236813F0080F5A
:101D400007D0124A536823F46053216943EAC10360
:101D50005360FFF719FF0D4B5B6803F0F003F022AF
:101D600092FAA2F2B2FA82F2D340094AD35CD84086
:101D7000084B18600020FEF77BFA002053E7012093
:101D8000704701204FE700BF0020024000100240D2
:101D9000BC3300080C040020014B1868704700BFDA
:101DA0000C04002008B5FFF7F7FF074B5B6803F44E
:101DB000E0634FF4E06292FAA2F2B2FA82F2D34008
:101DC000024AD35CD84008BD00100240CC33000862
:101DD00008B5FFF7E1FF074B5B6803F460534FF46E
:101DE000605292FAA2F2B2FA82F2D340024AD35C73
:101DF000D84008BD00100240CC330008F0B583B0D5
:101E00000446036813F4803F48D0934BDB6913F01A
:101E1000805F40F0D580904BDA6942F08052DA6101
:101E2000DB6903F080530193019B01258B4B1B68F9
:101E300013F4807F00F0C680874B1B6A13F4407355
:101E400022D0626802F440729A421DD08248016A30
:101E500021F440764FF4803393FAA3F2B2FA82F27F
:101E60007F4F3A4492004FF0010CC2F800C093FA41
:101E7000A3F3B3FA83F33B449B0000221A6006628B
:101E800011F0010F40F0B380734A136A23F44073DA
:101E900061680B431362002D40F0D580236813F076
:101EA000010F06D06C4A136B23F00303A1680B43A8
:101EB0001363236813F0020F06D0674A136B23F4F1
:101EC0004033E1680B431363236813F0040F06D01B
:101ED000614A136B23F4402321690B431363236886
:101EE00013F0200F06D05C4A136B23F01003E16956
:101EF0000B431363236813F4003F06D0564A53681C
:101F000023F48003A16B0B435360236813F0400F4D
:101F100006D0514A136B23F02003216A0B4313634D
:101F2000236813F0080F06D04B4A136B23F44013B9
:101F300061690B431363236813F0100F06D0464A00
:101F4000136B23F44003A1690B431363236813F459
:101F5000007F06D0404A536823F40003E16A0B4334
:101F60005360236813F0800F06D03B4AD36A23F4F2
:101F7000F873616A0B43D362236813F4807F06D041
:101F8000354AD36A23F47853A16A0B43D36223689A
:101F900013F4805F06D0304A136B23F48073216BF7
:101FA0000B431363236813F4005F53D02A4A136B67
:101FB00023F40073616B0B431363002003B0F0BD87
:101FC000002533E7254A136843F480731360FEF756
:101FD00091F90646214B1B6813F4807F7FF42CAFE8
:101FE000FEF788F9801B6428F4D90320E6E7FEF7A2
:101FF00081F9064615E0184B196A022393FAA3F3F8
:10200000B3FA83F303F01F03012202FA03F30B4236
:102010007FF43AAFFEF76EF9801B41F288339842A5
:1020200016D8022393FAA3F293FAA3F3B3FA83F335
:102030005B0943F00203022BDDD0022393FAA3F3E2
:10204000054B596AD9E7D36923F08053D36125E75B
:102050000320B3E70020B1E7001002400070004009
:102060000081901010B504468368026913434269E9
:102070001343C2691A4301680B6823F4164323F023
:102080000C0313430B600268536823F44053C16888
:102090000B4353608369026A1A4301688B6823F417
:1020A000306313438B600368914A93421FD0914A77
:1020B00093422FD0904A934246D0904A93425DD0AB
:1020C0008F4A934274D01022E169B1F5004F00F0BD
:1020D0008B80082A00F20A81DFE812F0CE00DA00D5
:1020E000E6000801F200080108010801FE0002F5FF
:1020F0005842126B02F00302032A09D8DFE802F00B
:10210000020406720122DFE70422DDE70822DBE792
:102110001022D9E702F5E632126B02F44032B2F532
:10212000803F0BD007D9B2F5003F09D0B2F5403F50
:1021300008D10222C8E72AB90022C5E70422C3E772
:102140000822C1E71022BFE702F5E432126B02F465
:102150004022B2F5802F0BD007D9B2F5002F09D05D
:10216000B2F5402F08D10222AEE72AB90022ABE730
:102170000422A9E70822A7E71022A5E702F5E23228
:10218000126B02F44012B2F5801F0BD007D9B2F5E2
:10219000001F09D0B2F5401F08D1022294E72AB9E6
:1021A000002291E704228FE708228DE710228BE7B7
:1021B00002F5E032126B02F44002B2F5800F0BD050
:1021C00007D9B2F5000F09D0B2F5400F08D10222AD
:1021D0007AE72AB9002277E7042275E7082273E735
:1021E000102271E702226FE7082A42D8DFE802F0E6
:1021F000051722412D4141413800FFF7D3FD6268A8
:10220000530803EB4003B3FBF2F39BB2002023F02F
:102210000F02C3F3420313432268D36010BDFFF7DC
:10222000D7FD6268530803EB4003B3FBF2F39BB2A4
:102230000020ECE76268530803F5740303F51053BC
:10224000B3FBF2F39BB20020E1E7FFF79DFC62686D
:10225000530803EB4003B3FBF2F39BB20020D6E735
:102260006268530803F58033B3FBF2F39BB200209E
:10227000CDE701200023CAE7FFF794FD636800EB78
:102280005300B0FBF3F0236880B2D8600020C5E7AC
:10229000FFF79EFD636800EB5300B0FBF3F023688B
:1022A00080B2D8600020B9E761684A0802F5F402FC
:1022B00002F59052B2FBF1F292B2DA600020ADE783
:1022C000FFF762FC636800EB5300B0FBF3F0236898
:1022D00080B2D8600020A1E761684A0802F5004298
:1022E000B2FBF1F292B2DA60002097E7012095E7A5
:1022F000003801400044004000480040004C0040CD
:1023000000500040436A13F0010F06D00268536882
:1023100023F40033816A0B435360436A13F0020FC6
:1023200006D00268536823F48033C16A0B435360BC
:10233000436A13F0040F06D00268536823F4802325
:10234000016B0B435360436A13F0080F06D0026819
:10235000536823F40043416B0B435360436A13F00B
:10236000100F06D00268936823F48053816B0B43EF
:102370009360436A13F0200F06D00268936823F439
:102380000053C16B0B439360436A13F0400F0AD0B4
:102390000268536823F48013016C0B435360036C91
:1023A000B3F5801F0BD0436A13F0800F06D002688C
:1023B000536823F40023816C0B4353607047026819
:1023C000536823F4C003416C0B435360EBE72DE9E2
:1023D000F04105460F4616469846069C2B68DB6979
:1023E00037EA03030CBF01230023B3421DD1B4F12C
:1023F000FF3FF3D02CB1FDF77DFFA0EB0800A0421A
:10240000ECD92A68136823F4D07313602A689368A0
:1024100023F001039360202385F8693085F86A3042
:10242000002385F86830032000E00020BDE8F0813B
:102430002DE9F04182B01E4690F86930DBB2202BC6
:102440004ED104460D46904600294ED0002A4ED06B
:1024500090F86830012B4CD0012380F868300023BD
:10246000C366212380F86930FDF744FF0746A4F8CE
:102470005080A4F8528003E023682A781A85013539
:10248000B4F852309BB2DBB1B4F85230013B9BB28E
:10249000A4F8523000963B46002280212046FFF7E8
:1024A00096FF40BBA368B3F5805FE5D12369002B9D
:1024B000E2D1226835F8023BC3F308031385DFE756
:1024C00000963B46002240212046FFF780FF03464E
:1024D00098B9202284F86920002284F8682000E05E
:1024E0000223184602B0BDE8F0810123F9E7012379
:1024F000F7E70223F5E70323F3E70323F1E730B51A
:1025000083B004460023C366FDF7F4FE0546236846
:102510001B6813F0080F0ED123681B6813F0040F1B
:1025200017D1202384F8693084F86A30002084F8B9
:10253000680003B030BD6FF07E4300930346002275
:102540004FF400112046FFF742FF0028E4D003209B
:10255000EFE76FF07E4300932B4600224FF480019B
:102560002046FFF734FF0028DBD00320E1E778B3F3
:1025700010B5044690F869300BB3242384F8693011
:102580002268136823F0010313602046FFF76AFDF9
:10259000012813D0636ABBB92268536823F49043BF
:1025A00053602268936823F02A03936022681368BB
:1025B00043F0010313602046FFF7A1FF10BD80F830
:1025C000683000F049FAD8E72046FFF79BFEE3E7C2
:1025D0000120704700B58BB000230793089309933F
:1025E0000193029303930493059306931E484FF0BF
:1025F000A04202604FF40032426083600361012216
:10260000C26143620363C262C36002624263042226
:10261000426183618363FDF7A9FFE0B90623079355
:102620004FF4004308934FF48063099307A90E48C1
:10263000FEF7B2FC90B901230193029300230493A7
:1026400003930593069301A90748FEF7CFFA40B913
:102650000BB05DF804FB00F063F9DFE700F060F910
:10266000E9E700F05DF9F3E7FC04002000B587B06E
:102670000023009301930293039304930593164858
:10268000164A02604FF40032426083600361012207
:10269000C2614362C3600262436304224261836198
:1026A0008363FDF763FF80B9022300930123019345
:1026B0000023039302930493059369460648FEF7AB
:1026C00095FA28B907B05DF804FB00F029F9EBE7AB
:1026D00000F026F9F6E700BFA80400200001005032
:1026E00010B58AB0002305930693079308930993C6
:1026F0000368B3F1A04F04D0344A934240D00AB0EB
:1027000010BD0446324A136801331360012B29D0EF
:10271000304B5A6942F400325A615B6903F400336A
:102720000293029B012305930323069305A94FF00F
:102730009040FEF753FE2848284B03600023436077
:1027400083608022C2604FF4007202614FF4006225
:1027500042618361C361FEF76DFD70B91E4BE36397
:102760005C62CCE71B4B5A6942F080525A615B694C
:1027700003F080530193019BCAE700F0D1F8EDE725
:10278000134A136801331360012B13D0114B5A699C
:1027900042F400325A615B6903F400330493049BF2
:1027A000202305930323069305A94FF09040FEF7DD
:1027B00015FEA4E7074B5A6942F080525A615B69E3
:1027C00003F080530393039BE0E700BF0001005038
:1027D0009004002000100240500500200800024034
:1027E00000B583B00A4B5A6942F001025A615B6935
:1027F00003F001030193019B002211460B20FEF719
:1028000087FC0B20FEF7B8FC03B05DF804FB00BFAB
:102810000010024082B00A4B5A6942F400325A61F9
:102820005A6902F400320092009A5A6942F4002276
:102830005A615B6903F400230193019B02B0704766
:102840000010024030B59FB02422002115A800F0EE
:102850008BF900240F9410941194129413943C2239
:102860002146684600F080F902231493012518954B
:102870001023199314A8FEF77BFE0F230F931094D7
:1028800011944FF4E0631293139321460FA8FFF7BE
:10289000B3F9009502946846FFF7B0FA1FB030BD57
:1028A00010B5A0B0FDF708FD80220021684600F0B9
:1028B0005BF946F2A8121549684600F05DF96423F9
:1028C000162269461248FFF7B3FDFFF7BBFFFFF77B
:1028D000A1FFFFF785FFFFF77DFEFFF7C7FE00F0C2
:1028E0009FF80C4C2046FEF74BF82046FDF786FF7C
:1028F000094C2046FEF7FAF80849D1F80024204692
:10290000FEF764F8C820FDF7FBFCEAE7D4330008C3
:1029100094050020A8040020FC04002008000020EA
:102920007047000082B00A4B9A6942F001029A6136
:102930009A6902F001020092009ADA6942F080522C
:10294000DA61DB6903F080530193019B02B07047A9
:10295000001002407047FEE7FEE7FEE7FEE7704723
:102960007047704708B5FDF7B9FC08BD08B50248C7
:10297000FEF7D9FC08BD00BF5005002008B503468E
:102980000B4A126842B10A4A106803446A469342ED
:1029900006D8074A136008BD054A06491160F2E7E8
:1029A00000F0B8F80C2303604FF0FF30F3E700BFEE
:1029B00094040020080600201549D1F8883043F41B
:1029C0007003C1F88830134B1A6842F001021A6094
:1029D0005868114A02405A601A6822F0847222F440
:1029E00080321A601A6822F480221A605A6822F42F
:1029F000FE025A60DA6A22F00F02DA62186B074AA6
:102A000002401A6300229A604FF000638B607047A7
:102A100000ED00E0001002400CC07FF8CCFC00FF8D
:102A200008B50B480B4B03604FF41653436000236B
:102A30008360C36003610C2242618361C3610362EE
:102A40004362FFF794FD00B908BDFFF769FFFBE79C
:102A5000940500200038014000B589B0002303939D
:102A600004930593069307930268134B9A4202D08E
:102A700009B05DF804FB03F558439A6942F48042BB
:102A80009A619A6902F480420192019A5A6942F469
:102A900000225A615B6903F400230293029B3023F6
:102AA000039302230493032306930723079303A9A5
:102AB0000248FEF793FCDBE70038014000080048BD
:102AC000DFF834D0002103E00C4B5B584350043155
:102AD0000B480C4B42189A42F6D30B4A02E00023F3
:102AE00042F8043B094B9A42F9D3FFF765FF00F027
:102AF00017F8FFF7D5FEFEE700A0002024340008F9
:102B00000000002074040020740400200806002047
:102B1000FEE70000014B1868704700BF100400205A
:102B200070B50D4E0D4CA41BA4100025A54209D173
:102B30000B4E0C4C00F026FCA41BA4100025A54253
:102B400005D170BD56F8253098470135EEE756F8A7
:102B5000253098470135F2E71C3400081C34000882
:102B60001C3400082034000802440346934200D17C
:102B7000704703F8011BF9E70EB400B59CB01DAB1C
:102B8000029006906FF000410948079104910949AD
:102B900053F8042B05910068019302A900F066F830
:102BA000029B00221A701CB05DF804EB03B0704762
:102BB000100400200802FFFF2DE9F0478E689E42B6
:102BC00082460C469046994637D88A8912F4906F0F
:102BD00031D0256809696F1A6569022305EB45053F
:102BE00095FBF3F509F101033B449D4238BF1D46B7
:102BF000530530D5294600F02BFB064650B90C236F
:102C0000CAF80030A38943F04003A3814FF0FF309E
:102C1000BDE8F0873A46216900F0A8FAA38923F4B9
:102C2000906343F08003A381266165613E44ED1B00
:102C30002660A5604E464E4500D94E463246414676
:102C4000206800F09EFAA3689B1BA36023681E44C3
:102C500026600020DCE72A4600F054FB06460028E8
:102C6000E2D12169504600F0A5FAC8E72DE9F04FFE
:102C70001D468B891F069DB080460C4616460FD513
:102C80000B696BB9402100F0E3FA2060206128B99C
:102C90000C23C8F800304FF0FF30C8E040236361D8
:102CA0000023099320238DF8293030238DF82A3012
:102CB00003954FF0010B37463D4615F8013B0BB12C
:102CC000252B3ED1B7EB060A0BD0534632462146A0
:102CD0004046FFF771FF013000F0A480099B534488
:102CE00009933B78002B00F09D8000234FF0FF32CA
:102CF000CDE90523049307938DF853301A932F469B
:102D0000052217F8011B5048FDF762FA049BD0B961
:102D1000D90644BF20228DF853201A0744BF2B2226
:102D20008DF853202A782A2A15D0079A2F4600209A
:102D30000A25394611F8013B303B092B4DD9B8B172
:102D40000FE02F46B8E7404A801A0BFA00F018430C
:102D500004903D46D3E7039A111D12680391002A9F
:102D600001DB079204E0524243F00203079204930E
:102D70003B782E2B0CD17B782A2B33D1039B1A1D49
:102D80001B680392002BB8BF4FF0FF330237059347
:102D90002E4D397803222846FDF71AFA38B1402320
:102DA000401B03FA00F0049B034301370493397876
:102DB00027488DF8281006227E1CFDF709FA002806
:102DC00038D0244B13BB039B073323F0070308338E
:102DD0000393099B4B4409936DE705FB02320120E5
:102DE0000F46A6E700230137059319460A25384602
:102DF00010F8012B303A092A03D9002BC8D00591CD
:102E0000C6E705FB012101230746F0E703AB00936A
:102E10002246114B04A94046AFF30080B0F1FF3FBA
:102E20008146D6D1A3895B063FF535AF09981DB021
:102E3000BDE8F08F03AB00932246074B04A9404640
:102E400000F082F8EAE700BFE8330008EE3300083C
:102E5000F233000800000000B92B00082DE9F0470C
:102E600091461F468A680B69DDF820809342B8BFFF
:102E70001346C9F8003091F8432006460C4612B1BB
:102E80000133C9F800302368990642BFD9F80030F1
:102E90000233C9F80030256815F0060507D104F1A2
:102EA000190AE368D9F800209B1AAB4228DC94F891
:102EB00043302268003318BF012392062DD404F159
:102EC000430239463046C047013020D02368E568C8
:102ED000D9F8002003F00603042B08BFAD1AA3683D
:102EE00022690CBF25EAE57500259342C4BF9B1AF1
:102EF000ED184FF000091A344D451AD1002008E0B2
:102F00000123524639463046C047013003D14FF0C5
:102F1000FF30BDE8F0870135C3E7E1185A1C3020C7
:102F200081F84300224494F8451082F8431002339C
:102F3000C5E70123224639463046C0470130E6D076
:102F400009F10109D8E700002DE9F04301F1430C34
:102F50000C46097E85B06E291746064698460C9A9F
:102F600000F0B38022D8632936D00AD8002900F0B7
:102F7000B980582900F0838004F1420584F842109A
:102F800032E0642901D06929F6D12068136805066A
:102F900003F104012AD51B681160002B03DA2D22EE
:102FA0005B4284F843206F480A2239E0732900F01D
:102FB0009D8008D86F2920D07029DDD1236843F087
:102FC0002003236003E0752917D07829D4D1782312
:102FD00084F84530644855E01368191D1B6811607A
:102FE00004F1420584F8423001238CE01B68116033
:102FF00010F0400F18BF1BB2CFE713682568181DEB
:103000001060280601D51B6802E06806FBD51B8806
:1030100054486F2914BF0A220822002184F8431063
:103020006568A560002DC0F29580216821F004013B
:103030002160002B3DD1002D40F08E806546082A8E
:103040000BD12368DB0708D5236962689A42DEBF8B
:10305000302305F8013C05F1FF35ACEB0503236196
:10306000CDF800803B4603AA21463046FFF7F6FE26
:1030700001304DD14FF0FF3005B0BDE8F083394845
:1030800084F84510136821681D1D1B6815600A0629
:103090000BD5CA0744BF41F0200121601BB922684B
:1030A00022F0200222601022B7E74D0648BF9BB2F3
:1030B000EFE76546B3FBF2F102FB1133C35C05F8A1
:1030C000013D0B460029F5D1B9E713682568616910
:1030D000181D106028061B6801D5196002E06A06F9
:1030E000FBD51980002323616546B9E71368191DD4
:1030F00011601D68626800212846FDF769F808B173
:10310000401B606063682361002384F84330A7E7B5
:1031100023692A4639463046C0470130AAD0236881
:103120009B0713D4E068039B9842B8BF1846A3E7F7
:1031300001234A4639463046C04701309AD001350E
:10314000E368039A9B1AAB42F2DCEBE7002504F13B
:103150001909F5E7002BACD1037884F8423004F16B
:1031600042056CE7F93300080A34000810B5431E25
:103170000A44914200D110BD11F8014B03F8014FF0
:10318000F7E7884210B501EB020307D8421E9942C7
:103190000AD011F8014B02F8014FF8E78342F5D944
:1031A0008118D21AD34200D110BD13F8014D01F895
:1031B000014DF7E738B50546002945D051F8043CE4
:1031C0000C1F002BB8BFE41800F0D2F81F4A136898
:1031D000104633B9636014602846BDE8384000F0FB
:1031E000C8B8A3420CD921686218934204BF1A6878
:1031F0005B68636004BF521822600460ECE713460A
:103200005A680AB1A242FAD919685818A0420BD1DB
:1032100020680144581882421960DDD11068526854
:103220005A6001441960D7E702D90C232B60D3E719
:10323000206821188A4204BF11685268626004BF86
:10324000091821605C60C7E738BD00BF9C040020FE
:1032500070B5CD1C25F0030508350C2D38BF0C25A5
:10326000002D064601DBA94203D90C233360002060
:1032700070BD00F07DF8214A1468214691B9204CB8
:1032800023681BB9304600F063F8206029463046B9
:1032900000F05EF8431C24D10C233360304600F06C
:1032A00068F8E4E70B685B1B18D40B2B0FD90B6095
:1032B000CD50CC18304600F05CF804F10B00231D13
:1032C00020F00700C31AD3D05A42E250D0E78C4214
:1032D0004B6816BF636013600C46EBE70C46496809
:1032E000CCE7C41C24F00304A04205D0211A3046C8
:1032F00000F02EF80130CFD02560DBE79C040020E1
:10330000A0040020F8B5074614460E4621B9114620
:10331000BDE8F840FFF79CBF22B9FFF74BFF2546F9
:103320002846F8BD00F026F8A0420FD221463846C4
:10333000FFF78EFF05460028F2D031462246FFF700
:1033400015FF31463846FFF735FFE9E73546E7E731
:1033500038B5064C0023054608462360FFF70EFBF0
:10336000431C02D1236803B12B6038BD0406002042
:103370007047704751F8043C181F002BBCBF0B5816
:10338000C0187047F8B500BFF8BC08BC9E4670472F
:0C339000F8B500BFF8BC08BC9E467047B2
:10339C0002030405060708090A0B0C0D0E0F10108A
:1033AC000102030405060708090A0B0C0D0E0F1089
:1033BC0000000000000000000102030406070809D9
:1033CC000000000001020304414443204672657171
:1033DC0075656E63793A2025640A0D00232D302B18
:1033EC002000686C4C0065666745464700303132FA
:1033FC003334353637383941424344454600303151
:10340C0032333435363738396162636465660000AF
:04341C00B5010008EE
:04342000910100080E
:103424000100000010000000000000000000000087
:103434000000000000000000000000000000000088
:103444000000000000000000000000000000000078
:103454000000000000000000000000000000000068
:103464000000000000000000000000000000000058
:1038240000000000000000000001000000127A0007
:10383400140400200000000000000000000000004C
:103844000000000000000000000000000000000074
:103854000000000000000000000000000000000064
:103864000000000000000000000000000000000054
:103874000000000000000000000000000000000044
:103884000000000000000000000000000000000034
:043894000000000030
:0400000508002AC104
:00000001FF
