:020000040800F2
:1000000000A00020FD2C0008912B0008932B000875
:10001000952B0008972B0008992B00080000000082
:100020000000000000000000000000009B2B000802
:100030009D2B0008000000009F2B0008A12B00084A
:100040004D2D00084D2D00084D2D00084D2D0008A8
:100050004D2D00084D2D00084D2D00084D2D000898
:100060004D2D00084D2D00084D2D0008A92B00082E
:100070004D2D00084D2D00084D2D00084D2D000878
:100080004D2D00084D2D00084D2D00084D2D000868
:100090004D2D00084D2D00084D2D00084D2D000858
:1000A0004D2D00084D2D00084D2D00084D2D000848
:1000B0004D2D00084D2D00084D2D00084D2D000838
:1000C0004D2D00084D2D00084D2D00084D2D000828
:1000D0004D2D00084D2D00084D2D00084D2D000818
:1000E0004D2D00084D2D00084D2D00084D2D000808
:1000F0004D2D00084D2D00084D2D00084D2D0008F8
:100100000000000000000000000000004D2D00086D
:100110004D2D00084D2D00084D2D00084D2D0008D7
:100120004D2D00084D2D00084D2D00084D2D0008C7
:100130004D2D00084D2D00080000000000000000BB
:100140004D2D00084D2D00084D2D00080000000029
:10015000000000000000000000000000000000009F
:1001600000000000000000004D2D00084D2D00088B
:100170004D2D0008000000000000000000000000FD
:08018000000000004D2D0008F5
:1001900010B5054C237833B9044B13B10448AFF3C1
:1001A00000800123237010BDC8080020000000005B
:1001B000B43C000808B5034B1BB103490348AFF337
:1001C000008008BD00000000CC080020B43C0008FE
:1001D00001F0FF01102A2BDB10F0070F08D010F8F8
:1001E000013B013A8B422DD010F0070F42B3F6D1FC
:1001F000F0B441EA012141EA014122F007047FF015
:1002000000070023F0E80256083C85EA010586EA6B
:10021000010685FA47F5A3FA87F586FA47F6A5FAA7
:1002200087F68EB9EED1F0BC01F0FF0102F00702B3
:1002300032B110F8013B013A83EA010313B1F8D15E
:100240000020704701387047002D06BF354603383F
:10025000073815F0010F07D1013015F4807F02BF78
:10026000013015F4C03F0130F0BC0138704700BFC9
:1002700010B504460E4B18784FF47A73B3FBF0F3C5
:100280000C4A1068B0FBF3F000F094FF68B90F2C33
:1002900001D901200AE0002221464FF0FF3000F092
:1002A00047FF034B5C60002000E0012010BD00BF51
:1002B000000000206008002008B5074A136843F0DA
:1002C00010031360032000F021FF0020FFF7D0FF90
:1002D00002F046FC002008BD00200240034A1168DD
:1002E000034B1B780B441360704700BFF8080020D5
:1002F00000000020014B1868704700BFF80800207C
:1003000038B50446FFF7F6FF0546B4F1FF3F02D0CB
:10031000044B1B781C44FFF7EDFF401BA042FAD3AF
:1003200038BD00BF0000002070477047704738B5E7
:100330000268936803F00303012B01D0002038BD4D
:10034000136813F0010F2FD0936803F00D03012BF6
:1003500009D0036C43F010030364436C43F00103C2
:1003600043640120EBE70446936843F00203936083
:10037000036803221A60FFF7BDFF054623689B68E8
:1003800013F0010F0ED0FFF7B5FF401B0228F5D97F
:10039000236C43F010032364636C43F00103636434
:1003A0000120CCE70020CAE70020C8E703689A686C
:1003B00012F00C0F61D070B50446DA6812F0007FBD
:1003C00004D0008B40F20112904242D060290CD040
:1003D00023689A6812F0040F07D09A6812F0020F8F
:1003E00003D19A6842F010029A600C290CD023685D
:1003F0009A6812F0080F07D09A6812F0020F03D122
:100400009A6842F020029A60602932D06C292ED17D
:100410000C25FFF76FFF064623689B682B422AD006
:10042000FFF768FF801B0B28F6D9236C43F01003FD
:100430002364636C43F00103636401201CE0236CBC
:1004400043F010032364636C43F0010363640120F1
:1004500012E00022196811F0400F04D108498A42C5
:10046000EDD80132F6E740221A600C21B0E70425EE
:10047000CFE70825CDE7002070BD0020704700BF02
:10048000FF93090038B50268936803F00303012B5A
:100490000DD09168184B19420FD0036C43F0100334
:1004A0000364436C43F001034364012038BD1368C7
:1004B00013F0010FEDD00020F8E70446936843F0F5
:1004C00001039360FFF716FF054623681B6813F0CE
:1004D000010F0ED1FFF70EFF401B0228F5D9236C48
:1004E00043F010032364636C43F001036364012051
:1004F000DCE70020DAE700BF3F00008008B5406A73
:10050000036C43F040030364436C43F0040343640F
:10051000FFF70CFF08BD08B5406AFFF706FF08BDEE
:1005200008B5436A1A6C12F0500F03D09B6B1B6B1B
:10053000984708BD1A6C42F400721A641A68D268AF
:1005400012F4406F0DD15A7E5AB91A6C22F480729F
:100550001A641A6C12F4805F03D11A6C42F0010223
:100560001A641846FFF7E0FEE3E7000030B597B0E5
:1005700000230193002800F030810446036C13F03F
:10058000100F52D1036CABB1002023689A6812F0AF
:10059000805F03D09B6813F0005F47D0236C23F08B
:1005A000120343F010032364636C43F0010363649C
:1005B00001203BE04364C364836480F83C3002F074
:1005C000F7F823689B6813F0805F01D00020DCE718
:1005D0002046FFF7ACFE236C13F0100FD5D1002896
:1005E000D3D1236C23F4885323F0020343F0020396
:1005F00023642268936823F04053936022689368D1
:1006000043F080539360764B1B68764AA2FB03232A
:100610009B0C03EB83035A00019202E0019B013B18
:100620000193019B002BF9D1AFE70020236C13F05D
:10063000100F40F0C980002840F0C68023689A68F7
:1006400012F0040240F0C080216C21F4817141F06D
:1006500002012164B3F1A04F15D063498B420FD042
:100660006249B3F1A04F10D05F4DAB426AD0604DEC
:10067000AB426BD05F4DAB426BD00023029307E0DF
:1006800001F50071EDE75C49EBE703F58073029338
:100690002568AB6803F00303012B5DD0029B23B1F7
:1006A0009D6805F00305012D5BD08B6823F4403372
:1006B00065682B438B60617E4B03656B012D01D018
:1006C0004FF480521343E2681343A268134394F833
:1006D0002020012A4AD0A26A012A0AD02168444D6A
:1006E000A94256D005F58075A94252D0E16A0A4365
:1006F00013432268916811F00C0F0CD1D16821F4DA
:10070000804121F00201D160217E94F83020520016
:1007100042EA813213432168CD68384A2A401343A4
:10072000CB602369012B46D02268136B23F00F03A3
:10073000136300236364236C23F0030343F001037A
:10074000236448E04FF0A0430293A1E7294B0293B2
:100750009EE7274B02939BE72B6813F0010FAAD16A
:100760009CE71B6813F0010FA5D19EE731B9626ABF
:10077000013A43EA424343F48033ACE7226C22F06F
:10078000220242F020022264626C42F001026264A2
:10079000A1E7B2F5307F08D0B2F5807F08D0B2F57E
:1007A000E07FA3D14FF48072A0E74FF4E0729DE7A1
:1007B0004FF430729AE721680B6B23F00F03E26964
:1007C000013A13430B63B4E7236C23F0120343F0A5
:1007D00010032364012017B030BD0120FBE700BFE8
:1007E0006008002083DE1B4300010050000700501A
:1007F00000040050000500500003005007C0F0FF47
:1008000003689B6813F0040F40F0AF8090F83C3011
:10081000012B00F0AD8010B50446012380F83C3078
:10082000FFF730FE0346002840F09A80226C22F445
:10083000706222F0010242F4807222642268B2F1F6
:10084000A04F33D04B498A4230D04B49896811F0D0
:100850001F0F30D1216C21F480112164D16811F077
:10086000007F05D0216C21F4405141F48051216476
:10087000216C11F4805F3ED0616C21F0060161644F
:10088000002184F83C101C2111602268B2F1A04FB5
:1008900034D038498A4231D03749896811F01F0F66
:1008A00031D1916841F0040191605CE0334989687D
:1008B00011F01F0FCED0B2F1A04FCBD030498A42F9
:1008C000C8D0216C41F4801121642A498A420CD09D
:1008D0002B49C968C1F340610029C9D0216C21F4BA
:1008E000405141F480512164C2E74FF0A041C968F2
:1008F000C1F34061F0E700216164C1E71F498968E5
:1009000011F01F0FCDD0B2F1A04F09D019498A4282
:1009100006D01949896801F01F01052906D1C0E7F1
:100920001649896801F01F010529BAD0B2F1A04F1C
:1009300009D010498A4206D00F49896801F01F0189
:10094000092906D1ADE70D49896801F01F01092980
:10095000A7D0B2F1A04FA4D009498A4203D1A0E7A1
:10096000002284F83C20184610BD02231846704728
:100970000223FBE700010050000700500003005075
:100980000004005090F83C30012B1DD010B50446F7
:10099000012380F83C306C21FFF708FD034620B1AD
:1009A000002284F83C20184610BD2046FFF7BFFC0B
:1009B00003460028F4D1226C22F4885222F001026E
:1009C00042F001022264EBE7022318467047000060
:1009D000F0B595B004460E461746502200216846F1
:1009E00002F05AFD94F83C30012B6ED0012384F8BC
:1009F0003C3023689A6812F0040F68D1B3F1A04F1D
:100A000046D0354A934247D0009B002B47D0204622
:100A1000FFF738FD054600284AD0002D51D1226C41
:100A20002E4B134043F4807323642368DB6813F078
:100A3000007F05D0236C23F4405343F48053236498
:100A4000002384F83C306364A36B254A9A62A36B4D
:100A5000244ADA62A36B244A1A632368B3F1A04FD5
:100A60002DD0224A934228D021491C221A602268A4
:100A7000536843F0100353603B4632460C31A06B81
:100A800000F012FC2268936843F0040393601FE0B7
:100A900003F580730093B7E7164B0093B4E7236C1C
:100AA00043F020032364002384F83C3001250FE049
:100AB0006846FFF7E7FC0546AFE70F49D5E70E4963
:100AC000D3E7002384F83C3002E0022500E0022551
:100AD000284615B0F0BD00BF00040050FEF0EFFF47
:100AE0002105000817050008FD040008000100505A
:100AF00000070050000500500003005030B595B0CD
:100B0000044650220021684602F0C6FC94F83C30AE
:100B1000012B72D0012384F83C306C212046FFF772
:100B200045FC0546002862D12368B3F1A04F0AD0E6
:100B3000334A93420BD000230093009B53B1FFF73D
:100B4000D9FB054614E003F580730093F5E72D4BC0
:100B50000093F2E7236C43F040032364002384F8FE
:100B60003C30012546E0FFF7C5FB401B0B282BD886
:100B700023689B6813F0040FF5D1009B9B6813F06A
:100B8000040FF0D1A06B00F0C9FB054618B1236C2F
:100B900043F0400323642268536823F0100353603A
:100BA000DDB92046FFF7C3FB012820D06846FFF7D8
:100BB000BEFB01281BD0236C23F4885323F00103D0
:100BC00043F00103236412E0236C43F01003236419
:100BD000002384F83C3001250CE02046FFF7A7FBFA
:100BE0006846FFF7A4FB236C43F010032364002343
:100BF00084F83C30284615B030BD0225FAE700BF26
:100C0000000400500005005030B496B0002201925C
:100C100090F83C20012A00F0BB810346012280F8B5
:100C20003C200068826812F0040F40F0A6814A68F8
:100C3000042A31D8046B02EB420255001F22AA405D
:100C400024EA02020C68AC402243026318688268FE
:100C500012F00C0F68D10A68092A4ED9846902EB98
:100C600042021E3A0725954024EA05048D6805FADC
:100C700002F22243826148691C68E268C2F3C10241
:100C8000520000FA02F208690138032800F2958048
:100C9000DFE800F040727D88092A0ED8446B02EB31
:100CA000420255001E3D1F22AA4024EA02020C689F
:100CB00004FA05F52A434263C8E70E2A0ED8846B6E
:100CC00002EB420255003C3D1F22AA4024EA0202E8
:100CD0000C6804FA05F52A438263B7E7C46B02EB9C
:100CE000420255005A3D1F22AA4024EA02020C6823
:100CF00004FA05F52A43C263A8E7446902EB4202FD
:100D00000725954024EA05048D6805FA02F222437E
:100D10004261B0E7206E9F4D0540086842EA80625C
:100D2000154345F0004525661868826802F0030205
:100D3000012A75D0CA68012A78D0D0F8B0200D6891
:100D40000124AC4022EA0402C0F8B0201A68B2F1D3
:100D5000A04F00F096809048824200F090808F4C27
:100D60000868102800F08F80112800F0A080122859
:100D700000F0A280002005E1606E864D0540086805
:100D800042EA8062154345F000456566CCE7A06EF7
:100D9000804D0540086842EA8062154345F00045F1
:100DA000A566C1E7E56E7B4828400D6842EA85628A
:100DB000024342F00042E266B6E7226E02F0F842D9
:100DC0000868B2EB806F1CD01868426E02F0F842DF
:100DD0000C68B2EB846F19D01868826E02F0F8428A
:100DE0000C68B2EB846F16D01868C26E02F0F8423D
:100DF0000C68B2EB846F97D1C26E22F00042C266DB
:100E000092E7226E22F000422266DDE7426E22F077
:100E100000424266E0E7826E22F000428266E3E72B
:100E2000026812F0010F85D00020ABE0D0F8B020AE
:100E30000D680124AC402243C0F8B0200A68092A9A
:100E40000ED91D68A86902EB42021B3A07249440A0
:100E500020EA04008C6804FA02F20243AA6175E7F2
:100E60001D686869013202EB42020724944020EABF
:100E700004008C6804FA02F202436A6166E7484C97
:100E80006EE7474C6CE7A56815F4000F7FF46CAF74
:100E9000B2F1A04F16D0404882422CD04148824245
:100EA0002DD0414882422DD0002202920DE0A5684B
:100EB00015F0807FECD05AE7A06810F4800FE7D0DF
:100EC00000205FE002F5807202921868826802F0EA
:100ED0000302012A19D0029A22B1956805F0030590
:100EE000012D1CD00A68102A1ED0112A36D0122AD1
:100EF0003DD0002046E04FF0A0420292E5E72A4AAA
:100F00000292E2E7274A0292DFE7026812F0010F3D
:100F1000E1D01A6C42F020021A64012032E012681B
:100F200012F0010FF5D1DDE7B0F1A04FDDD1A268DD
:100F300042F40002A2601D4A12681D49A1FB021280
:100F4000920C02EB82025100019102E0019A013AF7
:100F50000192019A002AF9D1002013E0B0F1A04FCC
:100F6000C5D1A26842F08072A26000200AE0A268A7
:100F700042F48002A260002004E01A6C42F02002D9
:100F80001A640120002283F83C2016B030BC704760
:100F90000220FAE700F0FF83000100500007005034
:100FA00000030050000400500005005060080020BD
:100FB00083DE1B4370B495B003460268B2F1A04FC4
:100FC0000BD04D4882424BD04C4882424CD04C48CA
:100FD00082424CD00022009202E002F58072009220
:100FE000009A002A00F0848093F83C00012800F069
:100FF0008180012083F83C001868846814F0040F95
:101000006BD1946814F0040F67D1B0F1A04F33D0C6
:10101000394CA0422ED03B480C68002C3AD0846852
:1010200024F460444D6893F8306045EA46352C431B
:1010300084601D68AC6804F00304012C1ED0946821
:1010400004F00304012C1FD0826822F4716222F0A4
:101050000F020C68896821430A438260002041E046
:101060004FF0A0420092BBE7254A0092B8E7234A1E
:101070000092B5E72448CFE72348CDE72C6814F069
:10108000010FDCD000202DE0126812F0010FDBD040
:10109000002027E0816821F4604181601C68A1681C
:1010A00001F0030101290CD0916801F0030101292D
:1010B0000DD0826822F4716222F00F02826000205B
:1010C00010E0216811F0010FEED000200AE0126854
:1010D00012F0010FEDD0002004E01A6C42F0200263
:1010E0001A640120002283F83C2015B070BC7047C0
:1010F0000120FAE70220F8E7000100500004005048
:10110000000500500007005000030050074AD36854
:1011100023F4E0631B041B0C000200F4E06018439E
:1011200040F0BF6040F40030D060704700ED00E058
:1011300030B4174BDB68C3F30223C3F10704042C5C
:1011400028BF04241D1D062D18D9033B4FF0FF3581
:1011500005FA04F421EA0401994005FA03F322EAAE
:101160000303194300280BDB0901C9B200F16040F9
:1011700000F5614080F8001330BC70470023E5E7BC
:1011800000F00F000901C9B2024B1954F4E700BF87
:1011900000ED00E014ED00E0002807DB00F01F0286
:1011A000400901239340024A42F82030704700BFB3
:1011B00000E100E00138B0F1807F0AD2064B5860B0
:1011C000064AF02182F823100020986007221A6056
:1011D00070470120704700BF10E000E000ED00E024
:1011E00070B4066CC56B0124B4406C600468636025
:1011F0004368102B05D0036899600368DA6070BCFF
:10120000704703689A600368D960F8E702680C4B7E
:101210009A420AD90B4B13440B4AA2FB03231B0926
:101220009B000364094BC3637047094B1344064A90
:10123000A2FB03231B099B000364064BC363704797
:1012400007040240F8FBFDBFCDCCCCCC000402402B
:10125000F8FFFDBF0000024020B310B50446022392
:1012600080F8213001680A6822F47F5222F03002AF
:10127000436880680343E06803432069034360696F
:101280000343A0690343E069034313430B60204613
:10129000FFF7BCFF0020A063012384F8213084F80D
:1012A000200010BD0120704738B590F82040012C77
:1012B00032D0012480F8204090F82140012C04D045
:1012C000002380F82030022038BD0446022084F834
:1012D00021000020A0632568286820F00100286014
:1012E0002046FFF77DFFE36A5BB12268136843F095
:1012F0000E0313602268136843F00103136000209B
:10130000E2E72268136843F00A0313602268136857
:1013100023F004031360EDE70220D5E790F82130B5
:10132000022B06D004238363002380F820300120A1
:1013300070470268136823F00E0313600268136895
:1013400023F001031360036CC16B012202FA03F363
:101350004B6080F82120002380F820301846704729
:1013600038B5C36B1A6804682568016C04238B4088
:10137000134213D015F0040F10D0236813F0200F80
:1013800003D1236823F004032360016CC26B0423A0
:101390008B405360C36A03B1984738BD02238B402A
:1013A00013421AD015F0020F17D0236813F0200F44
:1013B00006D1236823F00A032360012380F821303B
:1013C000016CC26B02238B405360002380F82030F5
:1013D000836A002BE1D09847DFE7082303FA01F185
:1013E0001142DAD015F0080FD7D0236823F00E038E
:1013F0002360026CC16B012303FA02F24A6083632B
:1014000080F82130002380F82030036B002BC4D0FB
:101410009847C2E7F0B482B0002336E0042400E02D
:101420000024B4403C4302355B4E46F825405B4CFB
:101430002568D44304EA05064F6817F4803F01D0BD
:1014400042EA0506554D2E606D6804EA05064F68B0
:1014500017F4003F01D042EA0506504D6E60AD68BA
:1014600004EA05064F6817F4801F01D042EA05061A
:101470004A4DAE60ED682C404E6816F4001F01D056
:1014800042EA0504454AD46001330A6832FA03F49B
:101490007ED001249C402240F6D04D68022D01D020
:1014A000122D10D1DE08083650F826C003F00705CB
:1014B000AF000F25BD402CEA050C0D69BD4045EA83
:1014C0000C0540F8265006685F000325BD40ED433B
:1014D00005EA060C4E6806F00306BE4046EA0C0616
:1014E00006604E6806F1FF3CBCF1010F03D9112ED6
:1014F00001D0122E10D1866805EA060CCE68BE40D7
:1015000046EA0C068660466826EA04044E68C6F37E
:1015100000169E4026434660C46825408C68BC4047
:101520002C43C4604C6814F0805FADD01C4CA5699E
:1015300045F00105A561A46904F001040194019C32
:101540009D08AE1C144C54F8267003F00304A6004A
:101550000F24B44027EA0407B0F1904F3FF460AF86
:10156000104CA0420ED004F58064A0420CD004F5CB
:101570008064A0420AD004F58064A0423FF44EAFDC
:1015800005244EE701244CE702244AE7032448E7F8
:1015900002B0F0BC704700BF0000014000040140F1
:1015A00000100240000400480AB98162704781615E
:1015B00070470000002800F00D8370B582B004462B
:1015C000036813F0010F3BD0B54B5B6803F00C03CD
:1015D000042B1ED0B24B5B6803F00C03082B13D016
:1015E0006368B3F5803F68D0002B40F0928003F130
:1015F000804303F504331A6822F480321A601A68B3
:1016000022F480221A605DE0A54B5B6813F4803FF2
:10161000E6D04FF4003393FAA3F3A14B19684FF4CB
:10162000003393FAA3F3B3FA83F303F01F03012209
:1016300002FA03F30B4203D06368002B00F0CC8264
:10164000236813F0020F00F0C680954B5B6813F01F
:101650000C0F00F09C80924B5B6803F00C03082B8E
:1016600000F08F802369002B00F0F380012292FAB2
:10167000A2F3B3FA83F303F1845303F584139B00BD
:101680001A60FEF737FE0546022393FAA3F3844B54
:101690001968022393FAA3F3B3FA83F303F01F0349
:1016A000012202FA03F30B4240F0C480FEF722FE4F
:1016B000401B0228E8D9032095E2794A136843F4D5
:1016C00080331360764AD36A23F00F03A1680B437B
:1016D000D3626368002B36D0FEF70CFE05464FF44C
:1016E000003393FAA3F36E4B19684FF4003393FA67
:1016F000A3F3B3FA83F303F01F03012202FA03F307
:101700000B429DD1FEF7F6FD401B6428E7D903206C
:1017100069E2B3F5A02F09D0614B1A6822F4803238
:101720001A601A6822F480221A60CBE703F1804322
:10173000A3F53C331A6842F480221A601A6842F416
:1017400080321A60BEE7FEF7D5FD05464FF4003340
:1017500093FAA3F3524B19684FF4003393FAA3F3AF
:10176000B3FA83F303F01F03012202FA03F30B42DF
:101770003FF466AFFEF7BEFD401B6428E6D90320A8
:1017800031E2474B5B6813F4803F7FF46BAF022379
:1017900093FAA3F3424B1968022393FAA3F3B3FA23
:1017A00083F303F01F03012202FA03F30B4204D078
:1017B0002369934201D0012015E23948036823F0E0
:1017C000F8036169F82292FAA2F2B2FA82F201FAFF
:1017D00002F213430360236813F0080F00F08C80BB
:1017E000A369002B60D0012191FAA1F2B2FA82F232
:1017F0002C4B13449B001960FEF77CFD0546022329
:1018000093FAA3F293FAA3F293FAA3F2244A516A49
:1018100093FAA3F3B3FA83F303F01F03012202FA4E
:1018200003F30B4268D1FEF765FD401B0228E6D9A1
:101830000320D8E11A48036823F0F8036169F8220D
:1018400092FAA2F2B2FA82F201FA02F213430360B0
:10185000C1E7012393FAA3F3B3FA83F303F18453AB
:1018600003F584139B0000221A60FEF743FD054632
:10187000022393FAA3F30A4B1968022393FAA3F302
:10188000B3FA83F303F01F03012202FA03F30B42BE
:10189000A1D0FEF72FFD401B0228E9D90320A2E1C9
:1018A0000010024020819010012292FAA2F2B2FAB6
:1018B00082F2BC4B13449B0000221A60FEF71AFD13
:1018C0000546022393FAA3F293FAA3F293FAA3F242
:1018D000B54A516A93FAA3F3B3FA83F303F01F03F3
:1018E000012202FA03F30B4206D0FEF703FD401B70
:1018F0000228E6D9032076E1236813F0040F00F0F4
:10190000B380A94BDB6913F0805F20D1A64BDA6965
:1019100042F08052DA61DB6903F080530193019B4E
:101920000125A24B1B6813F4807F12D0E368012BC2
:1019300023D073BB03F1804303F504331A6A22F00A
:1019400001021A621A6A22F004021A621AE00025E1
:10195000E7E7964A136843F480731360FEF7CAFC06
:101960000646924B1B6813F4807FDFD1FEF7C2FC62
:10197000801B6428F5D9032035E18B4A136A43F0B4
:1019800001031362E368002B41D0FEF7B3FC064667
:101990002BE0052B09D0844B1A6A22F001021A624F
:1019A0001A6A22F004021A62ECE77F4B1A6A42F0CC
:1019B00004021A621A6A42F001021A62E2E77A4BE2
:1019C000196A022393FAA3F3B3FA83F303F01F0314
:1019D000012202FA03F3194245D1FEF78BFC801B6A
:1019E00041F28833984200F2F980022393FAA3F27D
:1019F00093FAA3F3B3FA83F35B0943F00203022BD8
:101A0000DDD0022393FAA3F3674B596AD9E7FEF7B7
:101A100071FC064615E0644B196A022393FAA3F39E
:101A2000B3FA83F303F01F03012202FA03F319420E
:101A300019D0FEF75FFC801B41F28833984200F218
:101A4000CF80022393FAA3F293FAA3F3B3FA83F3BA
:101A50005B0943F00203022BDDD0022393FAA3F3C8
:101A6000514B596AD9E7B5BBE369002B00F0BA8046
:101A70004D4A526802F00C02082A00F09980022BAD
:101A80002FD04FF0807393FAA3F3B3FA83F303F1EB
:101A9000845303F584139B0000221A60FEF72AFC8E
:101AA00004464FF0007393FAA3F33F4B19684FF0CD
:101AB000007393FAA3F3B3FA83F303F01F03012235
:101AC00002FA03F319426BD0FEF714FC001B022844
:101AD000E7D9032087E0344AD36923F08053D361E8
:101AE000C2E74FF0807393FAA3F3B3FA83F303F1E1
:101AF000845303F584139B0000221A60FEF7FAFB5F
:101B000005464FF0007393FAA3F3274B19684FF083
:101B1000007393FAA3F3B3FA83F303F01F030122D4
:101B200002FA03F3194206D0FEF7E4FB401B022839
:101B3000E7D9032057E01C494B6823F47413626A09
:101B4000206A024313434B604FF0807393FAA3F370
:101B5000B3FA83F303F1845303F584139B0001224A
:101B60001A60FEF7C7FB04464FF0007393FAA3F325
:101B70000D4B19684FF0007393FAA3F3B3FA83F394
:101B800003F01F03012202FA03F3194206D1FEF704
:101B9000B1FB001B0228E7D9032024E0002022E04B
:101BA000002020E0208190100010024000700040D2
:101BB000012B1AD00F4B5B6803F48031226A9142EB
:101BC00001D001200FE003F47013626A93420ED03B
:101BD000012008E001207047012004E0032002E01A
:101BE000032000E0002002B070BD0120FBE70020D0
:101BF000F9E700BF0010024010B4174B5C6804F016
:101C00000C03082B26D104F470124FF4701393FACE
:101C1000A3F3B3FA83F322FA03F31049C85C0E4B23
:101C2000DB6A03F00F030F2292FAA2F2B2FA82F2F9
:101C3000D3400B441A7C14F4803F05D1084B03FBBE
:101C400000F05DF8044B7047064BB3FBF2F300FB6A
:101C500003F0F6E70348F4E700100240CC3C00082C
:101C600000093D0000127A00002800F0C18070B524
:101C70000446614B1B6803F007038B420CD25E4A9B
:101C8000136823F007030B431360136803F0070383
:101C90008B4201D0012070BD236813F0020F06D0E3
:101CA000564A536823F0F003A068034353600D467F
:101CB000236813F0010F5AD06368012B2DD0022B3B
:101CC00040D0022292FAA2F24C4A1068022292FA02
:101CD000A2F2B2FA82F202F01F02012101FA02F22C
:101CE000104200F0878045494A6822F003021343FE
:101CF0004B60FEF7FFFA0646404B5B6803F00C03AF
:101D00006268B3EB820F32D0FEF7F4FA801B41F227
:101D100088339842F0D90320BDE74FF4003292FA9D
:101D2000A2F2364A10684FF4003292FAA2F2B2FAE6
:101D300082F202F01F02012101FA02F20242D2D124
:101D40000120A8E74FF0007292FAA2F22B4A106825
:101D50004FF0007292FAA2F2B2FA82F202F01F027F
:101D6000012101FA02F21042BDD1012093E7224B7A
:101D70001B6803F00703AB420CD91F4A136823F01A
:101D800007032B431360136803F00703AB4201D032
:101D9000012080E7236813F0040F06D0174A536828
:101DA00023F4E063E1680B435360236813F0080FEA
:101DB00007D0124A536823F46053216943EAC103F0
:101DC0005360FFF719FF0D4B5B6803F0F003F0223F
:101DD00092FAA2F2B2FA82F2D340094AD35CD84016
:101DE000084B1860084B1868FEF742FA002052E7CB
:101DF0000120704701204EE7002002400010024001
:101E0000EC3C00086008002004000020014B18682A
:101E1000704700BF6008002008B5FFF7F7FF074BC9
:101E20005B6803F4E0634FF4E06292FAA2F2B2FA64
:101E300082F2D340024AD35CD84008BD0010024071
:101E4000FC3C000808B5FFF7E1FF074B5B6803F4B3
:101E500060534FF4605292FAA2F2B2FA82F2D34087
:101E6000024AD35CD84008BD00100240FC3C000888
:101E7000F0B583B00446036813F4803F48D0934B19
:101E8000DB6913F0805F40F0D580904BDA6942F057
:101E90008052DA61DB6903F080530193019B0125D5
:101EA0008B4B1B6813F4807F00F0C680874B1B6A46
:101EB00013F4407322D0626802F440729A421DD03B
:101EC0008248016A21F440764FF4803393FAA3F2FA
:101ED000B2FA82F27F4F3A4492004FF0010CC2F8FE
:101EE00000C093FAA3F3B3FA83F33B449B000022B0
:101EF0001A60066211F0010F40F0B380734A136A52
:101F000023F4407361680B431362002D40F0D580C9
:101F1000236813F0010F06D06C4A136B23F0030300
:101F2000A1680B431363236813F0020F06D0674ABE
:101F3000136B23F44033E1680B431363236813F0FE
:101F4000040F06D0614A136B23F4402321690B432D
:101F50001363236813F0200F06D05C4A136B23F041
:101F60001003E1690B431363236813F4003F06D0A9
:101F7000564A536823F48003A16B0B4353602368D4
:101F800013F0400F06D0514A136B23F02003216A4F
:101F90000B431363236813F0080F06D04B4A136BEF
:101FA00023F4401361690B431363236813F0100F8C
:101FB00006D0464A136B23F44003A1690B43136315
:101FC000236813F4007F06D0404A536823F40003CB
:101FD000E16A0B435360236813F0800F06D03B4A3D
:101FE000D36A23F4F873616A0B43D362236813F452
:101FF000807F06D0354AD36A23F47853A16A0B4315
:10200000D362236813F4805F06D0304A136B23F445
:102010008073216B0B431363236813F4005F53D069
:102020002A4A136B23F40073616B0B431363002084
:1020300003B0F0BD002533E7254A136843F48073ED
:102040001360FEF757F90646214B1B6813F4807F97
:102050007FF42CAFFEF74EF9801B6428F4D90320DF
:10206000E6E7FEF747F9064615E0184B196A022322
:1020700093FAA3F3B3FA83F303F01F03012202FAE6
:1020800003F30B427FF43AAFFEF734F9801B41F2C1
:102090008833984216D8022393FAA3F293FAA3F353
:1020A000B3FA83F35B0943F00203022BDDD0022372
:1020B00093FAA3F3054B596AD9E7D36923F0805308
:1020C000D36125E70320B3E70020B1E70010024009
:1020D000007000400081901010B5044683680269CA
:1020E000134342691343C2691A4301680B6823F41E
:1020F000164323F00C0313430B600268536823F468
:102100004053C1680B4353608269036A1A430168F4
:102110008B6823F4306313438B600368964A9342C1
:102120001FD0964A93422ED0954A934244D0954A66
:1021300093425AD0944A934270D01023E269B2F588
:10214000004F00F08680082B00F20F81DFE813F0CB
:10215000D000E500EF000D01FA000D010D010D01A9
:1021600004018A4B1B6B03F00303032B09D8DFE840
:1021700003F00204066E0123E0E70423DEE70823F0
:10218000DCE71023DAE7814B1B6B03F44033B3F534
:10219000803F0BD007D9B3F5003F09D0B3F5403FDE
:1021A00008D10223CAE72BB90023C7E70423C5E7F8
:1021B0000823C3E71023C1E7744B1B6B03F44023D0
:1021C000B3F5802F0BD007D9B3F5002F09D0B3F5A5
:1021D000402F08D10223B1E72BB90023AEE7042337
:1021E000ACE70823AAE71023A8E7684B1B6B03F4AE
:1021F0004013B3F5801F0BD007D9B3F5001F09D0EA
:10220000B3F5401F08D1022398E72BB9002395E7C7
:10221000042393E7082391E710238FE75B4B1B6BA5
:1022200003F44003B3F5800F0BD007D9B3F5000FCB
:1022300009D0B3F5400F08D102237FE72BB9002363
:102240007CE704237AE7082378E7102376E7022364
:1022500074E7082B49D8DFE803F0051E2948344805
:1022600048483F00FFF7D8FD6268530803EB40037E
:10227000B3FBF2F39BB20020A3F110014FF6EF7213
:10228000914275D89AB222F00F02C3F3420313436E
:102290002268D3603DE0FFF7D5FD6268530803EB89
:1022A0004003B3FBF2F39BB20020E5E762685308FA
:1022B00003F5740303F51053B3FBF2F39BB2002054
:1022C000DAE7FFF799FC6268530803EB4003B3FBBE
:1022D000F2F39BB20020CFE76268530803F5803326
:1022E000B3FBF2F39BB20020C6E701200023C3E753
:1022F000FFF792FD626800EB5203B3FBF2F39BB26F
:102300000020A3F110014FF6EF72914232D82268FB
:10231000D36000232366636610BDFFF793FD6268F8
:1023200000EB5203B3FBF2F39BB20020E9E76268D3
:10233000530803F5F40303F59053B3FBF2F39BB298
:102340000020DEE7FFF758FC626800EB5203B3FBA6
:10235000F2F39BB20020D4E76268530803F5004310
:10236000B3FBF2F39BB20020CBE701200023C8E7C8
:102370000120CEE70120CCE70038014000440040B6
:1023800000480040004C0040005000400010024057
:10239000436A13F0010F06D00268536823F4003338
:1023A000816A0B435360436A13F0020F06D0026840
:1023B000536823F48033C16A0B435360436A13F0BC
:1023C000040F06D00268536823F48023016B0B438B
:1023D0005360436A13F0080F06D00268536823F471
:1023E0000043416B0B435360436A13F0100F06D058
:1023F0000268936823F48053816B0B439360436AB4
:1024000013F0200F06D00268936823F40053C16BC9
:102410000B439360436A13F0400F0AD0026853687D
:1024200023F48013016C0B435360036CB3F5801FDE
:102430000BD0436A13F0800F06D00268536823F470
:102440000023816C0B43536070470268536823F488
:10245000C003416C0B435360EBE72DE9F0410446A8
:102460000F4616469846069D2368DB6937EA030344
:102470000CBF01230023B3423AD1B5F1FF3FF3D0A3
:10248000FDF738FFA0EB0800A8421FD8F5B123687C
:102490001A6812F0040FE7D0DA6912F4006FE3D083
:1024A0004FF400621A622268136823F4D073136039
:1024B0002268936823F00103936020236367A36776
:1024C000E367002384F87030032012E02268136869
:1024D00023F4D07313602268936823F001039360A0
:1024E00020236367A367002384F87030032000E093
:1024F0000020BDE8F0812DE9F04182B01E46436F17
:10250000202B55D104460D469046002955D0002A6F
:1025100055D090F87030012B53D0012380F87030E3
:102520000023C36721234367FDF7E4FE0746A4F8B1
:102530005080A4F85280A368B3F5805F02D04FF0BA
:10254000000813E0236913B14FF000080EE0A8461D
:1025500000250BE038F8023B2268C3F3080313851B
:10256000B4F85230013B9BB2A4F85230B4F8523068
:102570009BB273B100963B46002280212046FFF7B4
:102580006CFF00BB002DE5D0236815F8012B1A85E0
:10259000E6E700963B46002240212046FFF75DFF1C
:1025A000034690B920226267002284F8702000E080
:1025B0000223184602B0BDE8F0810123F9E70123A8
:1025C000F7E70223F5E70323F3E70323F1E730B549
:1025D00083B004460023C367FDF78CFE05462368DD
:1025E0001B6813F0080F0CD123681B6813F0040F4D
:1025F00015D120236367A367002084F8700003B01F
:1026000030BD6FF07E430093034600224FF400116B
:102610002046FFF722FF0028E6D00320EFE76FF007
:102620007E4300932B4600224FF480012046FFF7A3
:1026300014FF0028DDD00320E1E768B310B504469D
:10264000436F03B3242363672268136823F00103F5
:1026500013602046FFF740FD012813D0636ABBB921
:102660002268536823F4904353602268936823F0F0
:102670002A0393602268136843F001031360204625
:10268000FFF7A5FF10BD80F8703000F003FBD9E71D
:102690002046FFF77DFEE3E70120704700B58BB0D1
:1026A00000230793089309930193029303930493E0
:1026B000059306931F484FF0A04202604FF440324A
:1026C0004260836003610122427680F82030C36259
:1026D0008262C360C26180F83020042242610376C6
:1026E0004363FDF743FFD8B9062307934FF4004334
:1026F00008930023099307A90E48FEF75BFC90B9E5
:1027000001230193029300230493039305930693FB
:1027100001A90848FEF778FA40B90BB05DF804FB50
:1027200000F01CFAE0E700F019FAE9E700F016FA09
:10273000F3E700BF4C09002000B587B000230093E9
:10274000019302930393049305931748174A026079
:102750004FF440324260836003610122427680F888
:102760002030C360C26180F83030042242610376B9
:102770004363FDF7FBFE80B902230093012301931D
:102780000023039302930493059369460648FEF7DA
:102790003BFA28B907B05DF804FB00F0DFF9EBE77E
:1027A00000F0DCF9F6E700BFFC0800200001005053
:1027B00010B58AB0002305930693079308930993F5
:1027C0000368B3F1A04F04D0344A934240D00AB01A
:1027D00010BD0446324A136801331360012B29D01F
:1027E000304B5A6942F400325A615B6903F400339A
:1027F0000293029B012305930323069305A94FF03F
:102800009040FEF707FE2848284B036000234360F2
:1028100083608022C2604FF4007202614FF4006254
:1028200042618361C361FEF717FD70B91E4BA3635C
:102830005C62CCE71B4B5A6942F080525A615B697B
:1028400003F080530193019BCAE700F087F9EDE79D
:10285000134A136801331360012B13D0114B5A69CB
:1028600042F400325A615B6903F400330493049B21
:10287000202305930323069305A94FF09040FEF70C
:10288000C9FDA4E7074B5A6942F080525A615B695F
:1028900003F080530393039BE0E700BF0001005067
:1028A000E4080020001002409C09002008000240BB
:1028B00010B584B000230FE030F82320A2F5F062B9
:1028C000154921F8132000EB83025288A2F5F0622B
:1028D000124921F813200133D0F800249A42EBD892
:1028E0000F4C00944FF480730C4A19460A4800F0CC
:1028F0007FFA0022ADF80E2004AB23F8042D0DF171
:102900000E024FF40071204600F022FABDF90C00CF
:10291000A0F5807004B010BDE00F0020E00D002095
:10292000E0090020002806DD0C2800DD0C20064B05
:1029300053F8200070474042052802DC024BD86C57
:1029400070470020704700BF0800002030B59BB0E2
:10295000054664242246002101A800F09DFD2A4678
:10296000054901A800F0A0FD234682B201A9034851
:10297000FFF7C1FD1BB030BD043D0008E011002091
:1029800000B583B00A4B5A6942F001025A615B6993
:1029900003F001030193019B002211460B20FEF777
:1029A000C7FB0B20FEF7F8FB03B05DF804FB00BF8C
:1029B0000010024030B589B00024039404940594BB
:1029C000069407941C4B5A6942F400325A615A69C2
:1029D00002F400320092009A5A6942F400225A61CD
:1029E0005A6902F400220192019A5A6942F40012D3
:1029F0005A615B6903F400130293029B0F4D224658
:102A00004FF480712846FEF7CFFD04230393032380
:102A10000493059403A94FF09040FEF7FBFC4FF49C
:102A200080730393012304930594069403A9284615
:102A3000FEF7F0FC09B030BD001002400010004865
:102A400030B59FB02422002115A800F025FD0024F8
:102A50000F9410941194129413943C2221466846CA
:102A600000F01AFD022314930125189510231993E1
:102A700014A8FEF79FFD0F230F931094A02311932A
:102A80004FF4E0631293139321460FA8FFF7ECF87D
:102A9000009502956846FFF7EBF91FB030BD0000C6
:102AA00030B5A1B0FDF708FCFFF7CAFFFFF782FFC2
:102AB000FFF766FFFFF7F2FDFFF73EFE00F0CEF8EE
:102AC00080220021684600F0E7FC4FF47A521D494D
:102AD000684600F0E9FC6423182269461A48FFF7AB
:102AE0000AFD1A4C1A48FDF74DFF184B9C4226D0A0
:102AF000164C1748FDF784FE164D2846FDF7FEFFDD
:102B0000124BD3F8002421462846FDF761FF04202C
:102B1000FDF7F6FB00224FF480710F48FEF744FDED
:102B20002046FFF7C5FE02B200F118039BB2302B1E
:102B3000D8D81046FFF7F6FEFFF708FFD2E703F2FA
:102B40000444D6E7103D0008E011002058000020A2
:102B5000FC0800204C0900200010004870470000CD
:102B600082B00A4B9A6942F001029A619A6902F0B6
:102B700001020092009ADA6942F08052DA61DB6960
:102B800003F080530193019B02B070470010024094
:102B90007047FEE7FEE7FEE7FEE7704770477047C5
:102BA00008B5FDF79BFB08BD08B50248FEF7D8FB4A
:102BB00008BD00BF9C09002008B503460B4A1268F7
:102BC00042B10A4A106803446A46934206D8074A4B
:102BD000136008BD054A06491160F2E700F032FCB7
:102BE0000C2303604FF0FF30F3E700BFE80800203C
:102BF000681200201549D1F8883043F47003C1F8F9
:102C00008830134B1A6842F001021A605868114A62
:102C100002405A601A6822F0847222F480321A60EC
:102C20001A6822F480221A605A6822F4FE025A605E
:102C3000DA6A22F00F02DA62186B074A02401A635E
:102C400000229A604FF000638B60704700ED00E057
:102C5000001002400CC07FF8CCFC00FF08B50B4808
:102C60000B4B03604FF41653436000238360C36033
:102C700003610C2242618361C36103624362FFF717
:102C8000DCFC00B908BDFFF769FFFBE7E01100209D
:102C90000038014000B589B00023039304930593E5
:102CA000069307930268134B9A4202D009B05DF86D
:102CB00004FB03F558439A6942F480429A619A6989
:102CC00002F480420192019A5A6942F400225A6148
:102CD0005B6903F400230293029B302303930223D6
:102CE0000493032306930723079303A90248FEF7DF
:102CF00091FBDBE70038014000080048DFF834D0E2
:102D0000002103E00C4B5B58435004310B480C4B43
:102D100042189A42F6D30B4A02E0002342F8043BE1
:102D2000094B9A42F9D3FFF765FF00F091FBFFF7DB
:102D3000B7FEFEE700A00020643D00080000002070
:102D4000C8080020C808002064120020FEE7000028
:102D500084462DE9F04301F1FF3E5FEA9E083CF90D
:102D6000024B43D000252F460A304FEA880930F93C
:102D7000086C0830B442B8BF344630F90E6CB8BFA6
:102D80006F1CB442B8BF344630F90C6CB8BFAF1CEE
:102D9000B442A8BF264630F90A4CB8BFEF1CA64281
:102DA00005F10405ACBF34462F46A945DFD10CEB35
:102DB000C80C1EF0030015D0BCF90050A542C4BFDA
:102DC0002C460F1A01380DD0BCF90250AC42BCBFE2
:102DD0002C460F1A012805D0BCF90410A142C4BF2B
:102DE00077460C4614801F60BDE8F0834746E0E755
:102DF0002DE9F04F99429DB001930F900D92C0F0D4
:102E00006182269ACB1A02EB43030C9302230B93A5
:102E1000019A0131891A02F1004318910D99013B81
:102E2000013A01EB4303199200F0FE8201210022D6
:102E3000DDF830B0DDF83C80A3F1020ACDF800B037
:102E400011F0030024D0B8F90060B3F90040351444
:102E5000271405FB07F506FB04540138224417D05C
:102E6000B8F90260B3F902403514271405FB07F5E1
:102E700006FB0454012822440AD0B8F90400B3F92F
:102E800004400514231403FB05F304FB0030024443
:102E90000098D21302800B9A01F101098218009266
:102EA000019A53464A452FD05FEA990B00F0C6823B
:102EB0000F9B5646184600224FEACB0B03EB0B083C
:102EC000076833684FEA274C191444680CFB01FC6F
:102ED00071684FEA244E0D140EFB05F53FB21BB28C
:102EE00007FB03C324B209B204FB015108301344A9
:102EF000404506F1080603EB0102E1D10AEB0B03A2
:102F00004946AAF1020A9BE7DDE90B3203FB0123E4
:102F10000C93019BCDF86890032B40F2E681189B3F
:102F200099081B9100F07D824C46A3081593DB00A5
:102F3000A3F1080204330D9D169309F003031193C6
:102F40000B9BAA1812929A0014920C9A0F981A448A
:102F500010925B4200EBC1020E9013921793002374
:102F60000693CDE904330393159B0D9A07930E9BAB
:102F700000921C68D3F80270220401923A044FEACE
:102F8000244802924FEA274E1E1D009A019C1368A6
:102F900021141D1405FB08F81BB203FB0187D6F8AA
:102FA0000090D6F802C005FB0EFE029C4FEA2940B5
:102FB0004FEA2C410897241405FB00F705FB01F5A7
:102FC00003FB04E4D6F804B0D6F806A00FFA89F99A
:102FD0000FFA8CFC526803FB097703FB0C534FEA92
:102FE0000B4509944FEA2B48141401954FEA2A4ED9
:102FF0004FEA0A4500FB04F001FB04F1029504FBD3
:1030000008F504FB0EF40A94039C12B20CFB0211A7
:10301000A446089C09FB0200A444049C0836A1466F
:10302000099CA144059C2744019C4FEA244A069C24
:1030300002FB0A552344029C4FEA244B0A9C02FBE4
:103040000B44009A23440832009206930CEB0002D2
:10305000079B039209EB01020492013B07EB050277
:103060000592079391D10E9B169A9A18119B012BEA
:1030700000F0BE81022B40F07E81129B11689B689C
:10308000D2F80220181400FB08F40E14151400FBEB
:103090000EF700FB06F600FB05F01BB203FB0A442B
:1030A00009B212B203FB0B7703FB016103FB0200C1
:1030B000039B23440393049B3B440493059B0B44D1
:1030C0000593069B03440693039B109A4FEAE33C47
:1030D000049B0B98D913059B179DDF13069B22F8C1
:1030E00005C0DB131180175222F81030149B0E9C80
:1030F000D3181093139B08349C420E947FF42FAF87
:103100001B9B0C98149901FB03029B000C921B93D0
:10311000189B13F00303039369D01A9A0F9902F0D6
:10312000030B4FEA920A1B9A0D98561C9A188B1C97
:1031300003EB4203009300F10803CDE9013B4FEAA2
:10314000CA0E0C9D139F00EB0E080BF1FF3901EB2B
:10315000460654460023019807F1080131F9082C6E
:1031600030F908BC31F906CC0BFB023330F906BC50
:1031700031F9042C0BFB0C3C30F904BC31F9023C56
:103180000BFB02C230F902CC013C01F108010CFB3F
:10319000032300F10800E1D1029907EB0E02B9B157
:1031A00037F90E00B8F9001000FB0133B9F1000F38
:1031B0000ED0B8F90210B2F90200B9F1010F00FB0C
:1031C000013305D0B2F90420B8F9041001FB023331
:1031D000DB132B800B9B37461D44009B0236B3420A
:1031E000B7D1DDE90B21039B02FB03130C930F9B6B
:1031F000189ADDF864A003EB42039B465FEA9A0944
:1032000000F0B4805D46CE4600220D9E2B683768E4
:1032100018144FEA274C69680CFB00FC70680C140A
:103220004FEA204808FB04F41BB23FB207FB03C37C
:1032300009B200B200FB01411344BEF1010E05F1D9
:10324000080506F1080603EB0102DFD10D9B4FEAEA
:10325000C9090BEB090499441AF0030324D0B4F90B
:103260000050B9F9001028140E1400FB06F005FBFD
:103270000101013B0A4417D0B4F90250B9F9021018
:1032800028140E1400FB06F005FB0101012B0A4473
:103290000AD0B4F90430B9F904001C14011401FB7C
:1032A00004F100FB03131A440C9BD2131A800B9AEF
:1032B000BAF1010A13440BF1020B0C939ED11DB01D
:1032C000BDE8F08F0A461C460D9D0D906FF0010081
:1032D00003F10043023B0192269A0B4402EB4303A5
:1032E0000F9521460B900C9392E5189B002B00F054
:1032F000A080DDE90BE0189B0F9A5F00D419B84657
:103300000D9E019D199F002D00F088801146B6F991
:1033100000C031F9023B03FB0CF36FB1B6F902C0F8
:10332000B2F90290022D09FB0C3305D0B2F904204A
:10333000B6F904C00CFB023343F3CF33A142038040
:103340000A467044DFD1DDE90B21189B02FB031311
:103350000C930F9B43440F93199B002BAFD09A46BD
:103360005FEA9A09DDF83CB07FF44CAF4A465C4610
:10337000DDF8349070E7032B7FF4A6AE129B116842
:103380009868D2F80250031403FB08F400B200FB63
:103390000A444FEA25490E1403FB0EF703FB06F619
:1033A000D2F8048003FB09F3039A2DB22244944619
:1033B00009B200FB016100FB0B7B00FB0530129B97
:1033C0004FEA2848B3F90C20049B9B44059B0B440F
:1033D0001F4602FB0EC1039105FB02B1069B04913F
:1033E000034409FB027102FB0833059106936BE667
:1033F000129B1268B3F908300699121403FB0212EB
:103400000692039A03FB0A220392049A03FB0B22FF
:103410000492059A03FB0E23059355E6911C2B4657
:103420008CE70F9B139373E6189B002B7FF461AF1F
:1034300045E7DDF864A0DDF83CB0DFE65A46DDF88C
:103440003C805DE5014B1868704700BF64080020B0
:1034500070B50D4E0D4CA41BA4100025A54209D13A
:103460000B4E0C4C00F026FCA41BA4100025A5421A
:1034700005D170BD56F8253098470135EEE756F86E
:10348000253098470135F2E75C3D00085C3D0008B7
:103490005C3D0008603D000802440346934200D1B1
:1034A000704703F8011BF9E70EB400B59CB01DABE3
:1034B000029006906FF00041094807910491094974
:1034C00053F8042B05910068019302A900F066F8F7
:1034D000029B00221A701CB05DF804EB03B0704729
:1034E000640800200802FFFF2DE9F0478E689E4225
:1034F00082460C469046994637D88A8912F4906FD6
:1035000031D0256809696F1A6569022305EB450505
:1035100095FBF3F509F101033B449D4238BF1D467D
:10352000530530D5294600F02BFB064650B90C2335
:10353000CAF80030A38943F04003A3814FF0FF3065
:10354000BDE8F0873A46216900F0A8FAA38923F480
:10355000906343F08003A381266165613E44ED1BC7
:103560002660A5604E464E4500D94E46324641463D
:10357000206800F09EFAA3689B1BA36023681E448A
:1035800026600020DCE72A4600F054FB06460028AF
:10359000E2D12169504600F0A5FAC8E72DE9F04FC5
:1035A0001D468B891F069DB080460C4616460FD5DA
:1035B0000B696BB9402100F0E3FA2060206128B963
:1035C0000C23C8F800304FF0FF30C8E0402363619F
:1035D0000023099320238DF8293030238DF82A30D9
:1035E00003954FF0010B37463D4615F8013B0BB1F3
:1035F000252B3ED1B7EB060A0BD053463246214667
:103600004046FFF771FF013000F0A480099B53444E
:1036100009933B78002B00F09D8000234FF0FF3290
:10362000CDE90523049307938DF853301A932F4661
:10363000052217F8011B5048FCF7CAFD049BD0B9BE
:10364000D90644BF20228DF853201A0744BF2B22ED
:103650008DF853202A782A2A15D0079A2F46002061
:103660000A25394611F8013B303B092B4DD9B8B139
:103670000FE02F46B8E7404A801A0BFA00F01843D3
:1036800004903D46D3E7039A111D12680391002A66
:1036900001DB079204E0524243F0020307920493D5
:1036A0003B782E2B0CD17B782A2B33D1039B1A1D10
:1036B0001B680392002BB8BF4FF0FF33023705930E
:1036C0002E4D397803222846FCF782FD38B140237D
:1036D000401B03FA00F0049B03430137049339783D
:1036E00027488DF8281006227E1CFCF771FD002863
:1036F00038D0244B13BB039B073323F00703083355
:103700000393099B4B4409936DE705FB02320120AB
:103710000F46A6E700230137059319460A253846C8
:1037200010F8012B303A092A03D9002BC8D0059193
:10373000C6E705FB012101230746F0E703AB009331
:103740002246114B04A94046AFF30080B0F1FF3F81
:103750008146D6D1A3895B063FF535AF09981DB0E8
:10376000BDE8F08F03AB00932246074B04A9404607
:1037700000F082F8EAE700BF283D00082E3D00086F
:10378000323D000800000000E93400082DE9F04750
:1037900091461F468A680B69DDF820809342B8BFC6
:1037A0001346C9F8003091F8432006460C4612B182
:1037B0000133C9F800302368990642BFD9F80030B8
:1037C0000233C9F80030256815F0060507D104F169
:1037D000190AE368D9F800209B1AAB4228DC94F858
:1037E00043302268003318BF012392062DD404F120
:1037F000430239463046C047013020D02368E5688F
:10380000D9F8002003F00603042B08BFAD1AA36803
:1038100022690CBF25EAE57500259342C4BF9B1AB7
:10382000ED184FF000091A344D451AD1002008E078
:103830000123524639463046C047013003D14FF08C
:10384000FF30BDE8F0870135C3E7E1185A1C30208E
:1038500081F84300224494F8451082F84310023363
:10386000C5E70123224639463046C0470130E6D03D
:1038700009F10109D8E700002DE9F04301F1430CFB
:103880000C46097E85B06E291746064698460C9A66
:1038900000F0B38022D8632936D00AD8002900F07E
:1038A000B980582900F0838004F1420584F8421061
:1038B00032E0642901D06929F6D120681368050631
:1038C00003F104012AD51B681160002B03DA2D22B5
:1038D0005B4284F843206F480A2239E0732900F0E4
:1038E0009D8008D86F2920D07029DDD1236843F04E
:1038F0002003236003E0752917D07829D4D17823D9
:1039000084F84530644855E01368191D1B68116040
:1039100004F1420584F8423001238CE01B681160F9
:1039200010F0400F18BF1BB2CFE713682568181DB1
:103930001060280601D51B6802E06806FBD51B88CD
:1039400054486F2914BF0A220822002184F843102A
:103950006568A560002DC0F29580216821F0040102
:103960002160002B3DD1002D40F08E806546082A55
:103970000BD12368DB0708D5236962689A42DEBF52
:10398000302305F8013C05F1FF35ACEB050323615D
:10399000CDF800803B4603AA21463046FFF7F6FEED
:1039A00001304DD14FF0FF3005B0BDE8F08339480C
:1039B00084F84510136821681D1D1B6815600A06F0
:1039C0000BD5CA0744BF41F0200121601BB9226812
:1039D00022F0200222601022B7E74D0648BF9BB2BA
:1039E000EFE76546B3FBF2F102FB1133C35C05F868
:1039F000013D0B460029F5D1B9E7136825686169D7
:103A0000181D106028061B6801D5196002E06A06BF
:103A1000FBD51980002323616546B9E71368191D9A
:103A200011601D68626800212846FCF7D1FB08B1CF
:103A3000401B606063682361002384F84330A7E77C
:103A400023692A4639463046C0470130AAD0236848
:103A50009B0713D4E068039B9842B8BF1846A3E7BE
:103A600001234A4639463046C04701309AD00135D5
:103A7000E368039A9B1AAB42F2DCEBE7002504F102
:103A80001909F5E7002BACD1037884F8423004F132
:103A900042056CE7393D00084A3D000810B5431E59
:103AA0000A44914200D110BD11F8014B03F8014FB7
:103AB000F7E7884210B501EB020307D8421E99428E
:103AC0000AD011F8014B02F8014FF8E78342F5D90B
:103AD0008118D21AD34200D110BD13F8014D01F85C
:103AE000014DF7E738B50546002945D051F8043CAB
:103AF0000C1F002BB8BFE41800F0D2F81F4A13685F
:103B0000104633B9636014602846BDE8384000F0C1
:103B1000C8B8A3420CD921686218934204BF1A683E
:103B20005B68636004BF521822600460ECE71346D0
:103B30005A680AB1A242FAD919685818A0420BD1A2
:103B400020680144581882421960DDD1106852681B
:103B50005A6001441960D7E702D90C232B60D3E7E0
:103B6000206821188A4204BF11685268626004BF4D
:103B7000091821605C60C7E738BD00BFF00800206D
:103B800070B5CD1C25F0030508350C2D38BF0C256C
:103B9000002D064601DBA94203D90C233360002027
:103BA00070BD00F07DF8214A1468214691B9204C7F
:103BB00023681BB9304600F063F820602946304680
:103BC00000F05EF8431C24D10C233360304600F033
:103BD00068F8E4E70B685B1B18D40B2B0FD90B605C
:103BE000CD50CC18304600F05CF804F10B00231DDA
:103BF00020F00700C31AD3D05A42E250D0E78C42DB
:103C00004B6816BF636013600C46EBE70C464968CF
:103C1000CCE7C41C24F00304A04205D0211A30468E
:103C200000F02EF80130CFD02560DBE7F00800204F
:103C3000F4080020F8B5074614460E4621B911468F
:103C4000BDE8F840FFF79CBF22B9FFF74BFF2546C0
:103C50002846F8BD00F026F8A0420FD2214638468B
:103C6000FFF78EFF05460028F2D031462246FFF7C7
:103C700015FF31463846FFF735FFE9E73546E7E7F8
:103C800038B5064C0023054608462360FEF794FF2E
:103C9000431C02D1236803B12B6038BD60120020A1
:103CA0007047704751F8043C181F002BBCBF0B58DD
:103CB000C0187047F8B500BFF8BC08BC9E467047F6
:0C3CC000F8B500BFF8BC08BC9E46704779
:103CCC0002030405060708090A0B0C0D0E0F101051
:103CDC000102030405060708090A0B0C0D0E0F1050
:103CEC0000000000000000000102030406070809A0
:103CFC00000000000102030425640A0D000000000E
:103D0C0025642C000A0D414443204672657175658B
:103D1C006E63793A2025640A0D000000232D302BA8
:103D2C002000686C4C0065666745464700303132B0
:103D3C003334353637383941424344454600303107
:103D4C003233343536373839616263646566000066
:043D5C00B5010008A5
:043D600091010008C5
:103D64000100000010000000000000000800000036
:103D740010000000180000002000000028000000CF
:103D8400300000003800000040000000480000003F
:103D940050000000580000005A000000000000001D
:103DA400F0FFFFFFE0FFFFFFD0FFFFFFC0FFFFFFBB
:103DB400B0FFFFFFA6FFFFFF0000000000000000AF
:103DC40000000000000000000000000000000000EF
:103DD40000000000000000000000000000000000DF
:103DE40000000000000000000000000000000000CF
:103DF40000000000000000000000000000000000BF
:1041B40000000000000000000001000000000000FA
:1041C40000000000000000000000000000000000EB
:1041D40000000000000000000000000000000000DB
:1041E40000000000000000000000000000000000CB
:1041F40000000000000000000000000000000000BB
:1045B40000000000000000000000000000010000F6
:1045C40000127A00680800200000000000000000CB
:1045D40000000000000000000000000000000000D7
:1045E40000000000000000000000000000000000C7
:1045F40000000000000000000000000000000000B7
:1046040000000000000000000000000000000000A6
:104614000000000000000000000000000000000096
:0846240000000000000000008E
:0400000508002CFDC6
:00000001FF
