:020000040800F2
:1000000000A00020C92D00085D2C00085F2C00080E
:10001000612C0008632C0008652C0008000000001B
:10002000000000000000000000000000672C000835
:10003000692C0008000000006B2C00086D2C0008E3
:10004000192E0008192E0008192E0008192E000874
:10005000192E0008192E0008192E0008192E000864
:10006000192E0008192E0008192E0008752C0008FA
:10007000192E0008192E0008192E0008192E000844
:10008000192E0008192E0008192E0008192E000834
:10009000192E0008192E0008192E0008192E000824
:1000A000192E0008192E0008192E0008192E000814
:1000B000192E0008192E0008192E0008192E000804
:1000C000192E0008192E0008192E0008192E0008F4
:1000D000192E0008192E0008192E0008192E0008E4
:1000E000192E0008192E0008192E0008192E0008D4
:1000F000192E0008192E0008192E0008192E0008C4
:10010000000000000000000000000000192E0008A0
:10011000192E0008192E0008192E0008192E0008A3
:10012000192E0008192E0008192E0008192E000893
:10013000192E0008192E0008000000000000000021
:10014000192E0008192E0008192E000800000000C2
:10015000000000000000000000000000000000009F
:100160000000000000000000192E0008192E0008F1
:10017000192E000800000000000000000000000030
:0801800000000000192E000828
:1001900010B5054C237833B9044B13B10448AFF3C1
:1001A00000800123237010BD7404002000000000B3
:1001B0004047000808B5034B1BB103490348AFF3A0
:1001C000008008BD000000007804002040470008BF
:1001D00001F0FF01102A2BDB10F0070F08D010F8F8
:1001E000013B013A8B422DD010F0070F42B3F6D1FC
:1001F000F0B441EA012141EA014122F007047FF015
:1002000000070023F0E80256083C85EA010586EA6B
:10021000010685FA47F5A3FA87F586FA47F6A5FAA7
:1002200087F68EB9EED1F0BC01F0FF0102F00702B3
:1002300032B110F8013B013A83EA010313B1F8D15E
:100240000020704701387047002D06BF354603383F
:10025000073815F0010F07D1013015F4807F02BF78
:10026000013015F4C03F0130F0BC0138704700BFC9
:1002700010B504460E4B18784FF47A73B3FBF0F3C5
:100280000C4A1068B0FBF3F000F080FF68B90F2C47
:1002900001D901200AE0002221464FF0FF3000F092
:1002A00033FF034B5C60002000E0012010BD00BF65
:1002B000000000200C04002008B5074A136843F032
:1002C00010031360032000F00DFF0020FFF7D0FFA4
:1002D00002F0ACFC002008BD00200240034A116877
:1002E000034B1B780B441360704700BFBC0A00200F
:1002F00000000020014B1868704700BFBC0A0020B6
:1003000070477047704738B50268936803F003037D
:10031000012B01D0002038BD136813F0010F2FD03E
:10032000936803F00D03012B09D0036C43F0100315
:100330000364436C43F0010343640120EBE704468C
:10034000936843F002039360036803221A60FFF787
:10035000D1FF054623689B6813F0010F0ED0FFF70D
:10036000C9FF401B0228F5D9236C43F01003236416
:10037000636C43F0010363640120CCE70020CAE70B
:100380000020C8E703689A6812F00C0F61D070B5BE
:100390000446DA6812F0007F04D0008B40F20112AC
:1003A000904242D060290CD023689A6812F0040F62
:1003B00007D09A6812F0020F03D19A6842F0100237
:1003C0009A600C290CD023689A6812F0080F07D0A5
:1003D0009A6812F0020F03D19A6842F020029A60E4
:1003E000602932D06C292ED10C25FFF783FF0646F9
:1003F00023689B682B422AD0FFF77CFF801B0B28C9
:10040000F6D9236C43F010032364636C43F00103BB
:10041000636401201CE0236C43F010032364636CCD
:1004200043F001036364012012E00022196811F017
:10043000400F04D108498A42EDD80132F6E7402244
:100440001A600C21B0E70425CFE70825CDE700208E
:1004500070BD0020704700BFFF93090038B50268E7
:10046000936803F00303012B0DD09168184B1942D8
:100470000FD0036C43F010030364436C43F001039B
:100480004364012038BD136813F0010FEDD0002044
:10049000F8E70446936843F001039360FFF72AFFEF
:1004A000054623681B6813F0010F0ED1FFF722FFEA
:1004B000401B0228F5D9236C43F010032364636CBE
:1004C00043F0010363640120DCE70020DAE700BFAA
:1004D0003F00008008B5406A036C43F040030364AA
:1004E000436C43F004034364FFF70CFF08BD08B5F9
:1004F000406AFFF706FF08BD08B5436A1A6C12F0A0
:10050000500F03D09B6B1B6B984708BD1A6C42F4CD
:1005100000721A641A68D26812F4406F0DD15A7EC4
:100520005AB91A6C22F480721A641A6C12F4805F41
:1005300003D11A6C42F001021A641846FFF7E0FE7C
:10054000E3E7000030B597B000230193002800F0E6
:1005500030810446036C13F0100F52D1036CABB121
:10056000002023689A6812F0805F03D09B6813F024
:10057000005F47D0236C23F0120343F01003236481
:10058000636C43F00103636401203BE04364C36494
:10059000836480F83C3002F07FF923689B6813F095
:1005A000805F01D00020DCE72046FFF7ACFE236C23
:1005B00013F0100FD5D10028D3D1236C23F4885326
:1005C00023F0020343F0020323642268936823F0BC
:1005D000405393602268936843F080539360764B56
:1005E0001B68764AA2FB03239B0C03EB83035A0090
:1005F000019202E0019B013B0193019B002BF9D189
:10060000AFE70020236C13F0100F40F0C9800028E2
:1006100040F0C68023689A6812F0040240F0C0805F
:10062000216C21F4817141F002012164B3F1A04FEA
:1006300015D063498B420FD06249B3F1A04F10D05F
:100640005F4DAB426AD0604DAB426BD05F4DAB4269
:100650006BD00023029307E001F50071EDE75C49E0
:10066000EBE703F5807302932568AB6803F003039F
:10067000012B5DD0029B23B19D6805F00305012D80
:100680005BD08B6823F4403365682B438B60617EBD
:100690004B03656B012D01D04FF480521343E26888
:1006A0001343A268134394F82020012A4AD0A26A77
:1006B000012A0AD02168444DA94256D005F580751B
:1006C000A94252D0E16A0A4313432268916811F0AB
:1006D0000C0F0CD1D16821F4804121F00201D160CE
:1006E000217E94F83020520042EA8132134321687F
:1006F000CD68384A2A401343CB602369012B46D08A
:100700002268136B23F00F03136300236364236CCD
:1007100023F0030343F00103236448E04FF0A043B8
:100720000293A1E7294B02939EE7274B02939BE795
:100730002B6813F0010FAAD19CE71B6813F0010F7F
:10074000A5D19EE731B9626A013A43EA424343F4D4
:100750008033ACE7226C22F0220242F020022264B5
:10076000626C42F001026264A1E7B2F5307F08D00A
:10077000B2F5807F08D0B2F5E07FA3D14FF480724C
:10078000A0E74FF4E0729DE74FF430729AE72168DA
:100790000B6B23F00F03E269013A13430B63B4E7D9
:1007A000236C23F0120343F010032364012017B0DD
:1007B00030BD0120FBE700BF0C04002083DE1B439B
:1007C00000010050000700500004005000050050D8
:1007D0000003005007C0F0FF03689B6813F0040F8C
:1007E00040F0AF8090F83C30012B00F0AD8010B5A8
:1007F0000446012380F83C30FFF730FE0346002812
:1008000040F09A80226C22F4706222F0010242F4DD
:10081000807222642268B2F1A04F33D04B498A42E1
:1008200030D04B49896811F01F0F30D1216C21F471
:1008300080112164D16811F0007F05D0216C21F472
:10084000405141F480512164216C11F4805F3ED00D
:10085000616C21F006016164002184F83C101C21C8
:1008600011602268B2F1A04F34D038498A4231D0A9
:100870003749896811F01F0F31D1916841F00401A7
:1008800091605CE03349896811F01F0FCED0B2F15E
:10089000A04FCBD030498A42C8D0216C41F480119E
:1008A00021642A498A420CD02B49C968C1F34061AE
:1008B0000029C9D0216C21F4405141F480512164B8
:1008C000C2E74FF0A041C968C1F34061F0E70021E1
:1008D0006164C1E71F49896811F01F0FCDD0B2F1E3
:1008E000A04F09D019498A4206D01949896801F0F8
:1008F0001F01052906D1C0E71649896801F01F01CB
:100900000529BAD0B2F1A04F09D010498A4206D0C9
:100910000F49896801F01F01092906D1ADE70D498A
:10092000896801F01F010929A7D0B2F1A04FA4D016
:1009300009498A4203D1A0E7002284F83C201846E6
:1009400010BD0223184670470223FBE70001005048
:1009500000070050000300500004005090F83C30A5
:10096000012B1DD010B50446012380F83C306C21CA
:10097000FFF708FD034620B1002284F83C2018460A
:1009800010BD2046FFF7BFFC03460028F4D1226CBF
:1009900022F4885222F0010242F001022264EBE7C5
:1009A0000223184670470000F0B595B004460E4685
:1009B000174650220021684603F0B4FA94F83C3000
:1009C000012B6ED0012384F83C3023689A6812F022
:1009D000040F68D1B3F1A04F46D0354A934247D0B7
:1009E000009B002B47D02046FFF738FD0546002826
:1009F0004AD0002D51D1226C2E4B134043F480730A
:100A000023642368DB6813F0007F05D0236C23F494
:100A1000405343F480532364002384F83C306364E0
:100A2000A36B254A9A62A36B244ADA62A36B244A19
:100A30001A632368B3F1A04F2DD0224A934228D0E5
:100A400021491C221A602268536843F01003536046
:100A50003B4632460C31A06B00F012FC22689368D2
:100A600043F0040393601FE003F580730093B7E73E
:100A7000164B0093B4E7236C43F020032364002358
:100A800084F83C3001250FE06846FFF7E7FC054697
:100A9000AFE70F49D5E70E49D3E7002384F83C3090
:100AA00002E0022500E00225284615B0F0BD00BF97
:100AB00000040050FEF0EFFFF9040008EF04000806
:100AC000D504000800010050000700500005005048
:100AD0000003005030B595B004465022002168460E
:100AE00003F020FA94F83C30012B72D0012384F8F3
:100AF0003C306C212046FFF745FC0546002862D1BA
:100B00002368B3F1A04F0AD0334A93420BD000239D
:100B10000093009B53B1FFF7EDFB054614E003F58E
:100B200080730093F5E72D4B0093F2E7236C43F0BD
:100B300040032364002384F83C30012546E0FFF79E
:100B4000D9FB401B0B282BD823689B6813F0040F9C
:100B5000F5D1009B9B6813F0040FF0D1A06B00F05F
:100B6000C9FB054618B1236C43F040032364226897
:100B7000536823F010035360DDB92046FFF7C3FB31
:100B8000012820D06846FFF7BEFB01281BD0236C4C
:100B900023F4885323F0010343F00103236412E09C
:100BA000236C43F010032364002384F83C300125B8
:100BB0000CE02046FFF7A7FB6846FFF7A4FB236C79
:100BC00043F010032364002384F83C30284615B01A
:100BD00030BD0225FAE700BF0004005000050050B8
:100BE00030B496B00022019290F83C20012A00F027
:100BF000BB810346012280F83C200068826812F025
:100C0000040F40F0A6814A68042A31D8046B02EB35
:100C1000420255001F22AA4024EA02020C68AC409E
:100C2000224302631868826812F00C0F68D10A68C8
:100C3000092A4ED9846902EB42021E3A07259540E3
:100C400024EA05048D6805FA02F2224382614869AC
:100C50001C68E268C2F3C102520000FA02F208699D
:100C60000138032800F29580DFE800F040727D88AB
:100C7000092A0ED8446B02EB420255001E3D1F228A
:100C8000AA4024EA02020C6804FA05F52A434263EA
:100C9000C8E70E2A0ED8846B02EB420255003C3D99
:100CA0001F22AA4024EA02020C6804FA05F52A432E
:100CB0008263B7E7C46B02EB420255005A3D1F2224
:100CC000AA4024EA02020C6804FA05F52A43C2632A
:100CD000A8E7446902EB42020725954024EA05048F
:100CE0008D6805FA02F222434261B0E7206E9F4D03
:100CF0000540086842EA8062154345F000452566D4
:100D00001868826802F00302012A75D0CA68012AB5
:100D100078D0D0F8B0200D680124AC4022EA04025B
:100D2000C0F8B0201A68B2F1A04F00F09680904849
:100D3000824200F090808F4C0868102800F08F806D
:100D4000112800F0A080122800F0A280002005E108
:100D5000606E864D0540086842EA8062154345F0A2
:100D600000456566CCE7A06E804D0540086842EA04
:100D70008062154345F00045A566C1E7E56E7B48F6
:100D800028400D6842EA8562024342F00042E26672
:100D9000B6E7226E02F0F8420868B2EB806F1CD012
:100DA0001868426E02F0F8420C68B2EB846F19D0FA
:100DB0001868826E02F0F8420C68B2EB846F16D0AD
:100DC0001868C26E02F0F8420C68B2EB846F97D1DB
:100DD000C26E22F00042C26692E7226E22F000420A
:100DE0002266DDE7426E22F000424266E0E7826E54
:100DF00022F000428266E3E7026812F0010F85D01C
:100E00000020ABE0D0F8B0200D680124AC402243B4
:100E1000C0F8B0200A68092A0ED91D68A86902EB3B
:100E200042021B3A0724944020EA04008C6804FA2A
:100E300002F20243AA6175E71D686869013202EB9C
:100E400042020724944020EA04008C6804FA02F26B
:100E500002436A6166E7484C6EE7474C6CE7A56859
:100E600015F4000F7FF46CAFB2F1A04F16D04048DC
:100E700082422CD0414882422DD0414882422DD01E
:100E8000002202920DE0A56815F0807FECD05AE7B1
:100E9000A06810F4800FE7D000205FE002F58072B8
:100EA00002921868826802F00302012A19D0029A9D
:100EB00022B1956805F00305012D1CD00A68102A9F
:100EC0001ED0112A36D0122A3DD0002046E04FF025
:100ED000A0420292E5E72A4A0292E2E7274A0292FA
:100EE000DFE7026812F0010FE1D01A6C42F0200235
:100EF0001A64012032E0126812F0010FF5D1DDE72B
:100F0000B0F1A04FDDD1A26842F40002A2601D4AF8
:100F100012681D49A1FB0212920C02EB82025100E1
:100F2000019102E0019A013A0192019A002AF9D155
:100F3000002013E0B0F1A04FC5D1A26842F080724A
:100F4000A26000200AE0A26842F48002A2600020B1
:100F500004E01A6C42F020021A640120002283F897
:100F60003C2016B030BC70470220FAE700F0FF8347
:100F70000001005000070050000300500004005022
:100F8000000500500C04002083DE1B4370B495B0B4
:100F900003460268B2F1A04F0BD04D4882424BD0BD
:100FA0004C4882424CD04C4882424CD000220092A5
:100FB00002E002F580720092009A002A00F084801C
:100FC00093F83C00012800F08180012083F83C0068
:100FD0001868846814F0040F6BD1946814F0040F3F
:100FE00067D1B0F1A04F33D0394CA0422ED03B484E
:100FF0000C68002C3AD0846824F460444D6893F85F
:10100000306045EA46352C4384601D68AC6804F0C6
:101010000304012C1ED0946804F00304012C1FD09B
:10102000826822F4716222F00F020C688968214301
:101030000A438260002041E04FF0A0420092BBE7EB
:10104000254A0092B8E7234A0092B5E72448CFE743
:101050002348CDE72C6814F0010FDCD000202DE0F0
:10106000126812F0010FDBD0002027E0816821F424
:10107000604181601C68A16801F0030101290CD066
:10108000916801F0030101290DD0826822F4716298
:1010900022F00F028260002010E0216811F0010FA1
:1010A000EED000200AE0126812F0010FEDD000200F
:1010B00004E01A6C42F020021A640120002283F836
:1010C0003C2015B070BC70470120FAE70220F8E719
:1010D00000010050000400500005005000070050BF
:1010E00000030050074AD36823F4E0631B041B0C81
:1010F000000200F4E060184340F0BF6040F40030AC
:10110000D060704700ED00E030B4174BDB68C3F3EC
:101110000223C3F10704042C28BF04241D1D062D3F
:1011200018D9033B4FF0FF3505FA04F421EA040116
:10113000994005FA03F322EA0303194300280BDB65
:101140000901C9B200F1604000F5614080F8001368
:1011500030BC70470023E5E700F00F000901C9B279
:10116000024B1954F4E700BF00ED00E014ED00E07D
:10117000002807DB00F01F02400901239340024AC8
:1011800042F82030704700BF00E100E00138B0F1C4
:10119000807F0AD2064B5860064AF02182F823105D
:1011A0000020986007221A6070470120704700BF36
:1011B00010E000E000ED00E070B4066CC56B0124A7
:1011C000B4406C60046863604368102B05D003680A
:1011D00099600368DA6070BC704703689A600368BE
:1011E000D960F8E702680C4B9A420AD90B4B1344BA
:1011F0000B4AA2FB03231B099B000364094BC36337
:101200007047094B1344064AA2FB03231B099B00AA
:101210000364064BC363704707040240F8FBFDBF3D
:10122000CDCCCCCC00040240F8FFFDBF0000024052
:1012300020B310B50446022380F8213001680A6803
:1012400022F47F5222F03002436880680343E06852
:1012500003432069034360690343A0690343E069D2
:10126000034313430B602046FFF7BCFF0020A0633D
:10127000012384F8213084F8200010BD012070473C
:1012800038B590F82040012C32D0012480F820405D
:1012900090F82140012C04D0002380F82030022057
:1012A00038BD0446022084F821000020A063256890
:1012B000286820F0010028602046FFF77DFFE36AE0
:1012C0005BB12268136843F00E0313602268136851
:1012D00043F0010313600020E2E72268136843F043
:1012E0000A0313602268136823F004031360EDE718
:1012F0000220D5E790F82130022B06D00423836327
:10130000002380F82030012070470268136823F022
:101310000E0313600268136823F001031360036C6B
:10132000C16B012202FA03F34B6080F821200023F5
:1013300080F820301846704738B5C36B1A680468C7
:101340002568016C04238B40134213D015F0040F61
:1013500010D0236813F0200F03D1236823F0040377
:101360002360016CC26B04238B405360C36A03B1DA
:10137000984738BD02238B4013421AD015F0020F54
:1013800017D0236813F0200F06D1236823F00A0337
:101390002360012380F82130016CC26B02238B4053
:1013A0005360002380F82030836A002BE1D09847F7
:1013B000DFE7082303FA01F11142DAD015F0080F34
:1013C000D7D0236823F00E032360026CC16B012386
:1013D00003FA02F24A60836380F82130002380F828
:1013E0002030036B002BC4D09847C2E7F0B482B022
:1013F000002336E0042400E00024B4403C430235DE
:101400005B4E46F825405B4C2568D44304EA05064C
:101410004F6817F4803F01D042EA0506554D2E6013
:101420006D6804EA05064F6817F4003F01D042EAF0
:101430000506504D6E60AD6804EA05064F6817F466
:10144000801F01D042EA05064A4DAE60ED682C408F
:101450004E6816F4001F01D042EA0504454AD460E4
:1014600001330A6832FA03F47ED001249C40224002
:10147000F6D04D68022D01D0122D10D1DE080836AD
:1014800050F826C003F00705AF000F25BD402CEA39
:10149000050C0D69BD4045EA0C0540F8265006686C
:1014A0005F000325BD40ED4305EA060C4E6806F0DB
:1014B0000306BE4046EA0C0606604E6806F1FF3C95
:1014C000BCF1010F03D9112E01D0122E10D1866864
:1014D00005EA060CCE68BE4046EA0C068660466801
:1014E00026EA04044E68C6F300169E402643466072
:1014F000C46825408C68BC402C43C4604C6814F020
:10150000805FADD01C4CA56945F00105A561A469BB
:1015100004F001040194019C9D08AE1C144C54F885
:10152000267003F00304A6000F24B44027EA040742
:10153000B0F1904F3FF460AF104CA0420ED004F5D4
:101540008064A0420CD004F58064A0420AD004F567
:101550008064A0423FF44EAF05244EE701244CE7DF
:1015600002244AE7032448E702B0F0BC704700BFFA
:101570000000014000040140001002400004004847
:10158000002862D010B582B0044690F83230DBB249
:10159000052B5CD090F83230DBB2022B5AD090F899
:1015A00032302E4B9A6942F001029A619B6903F036
:1015B00001030193019B90F832300BB980F8313070
:1015C000204601F00BFB6368402B1ED0602B1CD023
:1015D00021680868224A0240A0680343E068034388
:1015E0002069034360690343A0690343E06903433F
:1015F000206A0343606A0343A06A43EAC043E06A87
:1016000043EA006313430B6017E021680868144A3B
:101610000240E068034320690343A0690343E06993
:101620000343206A0343606A0343A06A43EAC0435A
:10163000E06A43EA006313430B6094F832305BB90D
:10164000012384F83230002002E00120704701209D
:1016500002B010BD0120FBE70020F9E700100240B6
:10166000113800E0A8B190F83230DBB2052B12D06F
:1016700090F83230DBB2012B01D0012070470168B5
:101680000B6843F001030B60042380F83230002024
:10169000704701207047012070470000002800F0CB
:1016A0000D8370B582B00446036813F0010F3BD080
:1016B000B54B5B6803F00C03042B1ED0B24B5B6888
:1016C00003F00C03082B13D06368B3F5803F68D098
:1016D000002B40F0928003F1804303F504331A6835
:1016E00022F480321A601A6822F480221A605DE0C7
:1016F000A54B5B6813F4803FE6D04FF4003393FAB8
:10170000A3F3A14B19684FF4003393FAA3F3B3FA90
:1017100083F303F01F03012202FA03F30B4203D009
:101720006368002B00F0CC82236813F0020F00F0F6
:10173000C680954B5B6813F00C0F00F09C80924BB9
:101740005B6803F00C03082B00F08F802369002BEB
:1017500000F0F380012292FAA2F3B3FA83F303F1CB
:10176000845303F584139B001A60FEF7C3FD0546FE
:10177000022393FAA3F3844B1968022393FAA3F389
:10178000B3FA83F303F01F03012202FA03F30B42BF
:1017900040F0C480FEF7AEFD401B0228E8D90320CC
:1017A00095E2794A136843F480331360764AD36A2A
:1017B00023F00F03A1680B43D3626368002B36D07C
:1017C000FEF798FD05464FF4003393FAA3F36E4BF2
:1017D00019684FF4003393FAA3F3B3FA83F303F0D9
:1017E0001F03012202FA03F30B429DD1FEF782FD93
:1017F000401B6428E7D9032069E2B3F5A02F09D084
:10180000614B1A6822F480321A601A6822F480222E
:101810001A60CBE703F18043A3F53C331A6842F426
:1018200080221A601A6842F480321A60BEE7FEF71E
:1018300061FD05464FF4003393FAA3F3524B196848
:101840004FF4003393FAA3F3B3FA83F303F01F03C7
:10185000012202FA03F30B423FF466AFFEF74AFDA2
:10186000401B6428E6D9032031E2474B5B6813F440
:10187000803F7FF46BAF022393FAA3F3424B1968C6
:10188000022393FAA3F3B3FA83F303F01F030122B5
:1018900002FA03F30B4204D02369934201D00120E2
:1018A00015E23948036823F0F8036169F82292FAD7
:1018B000A2F2B2FA82F201FA02F213430360236841
:1018C00013F0080F00F08C80A369002B60D0012179
:1018D00091FAA1F2B2FA82F22C4B13449B001960E8
:1018E000FEF708FD0546022393FAA3F293FAA3F24A
:1018F00093FAA3F2244A516A93FAA3F3B3FA83F357
:1019000003F01F03012202FA03F30B4268D1FEF732
:10191000F1FC401B0228E6D90320D8E11A480368ED
:1019200023F0F8036169F82292FAA2F2B2FA82F285
:1019300001FA02F213430360C1E7012393FAA3F310
:10194000B3FA83F303F1845303F584139B0000225D
:101950001A60FEF7CFFC0546022393FAA3F30A4B65
:101960001968022393FAA3F3B3FA83F303F01F0376
:10197000012202FA03F30B42A1D0FEF7BBFC401B8D
:101980000228E9D90320A2E1001002402081901032
:10199000012292FAA2F2B2FA82F2BC4B13449B00EB
:1019A00000221A60FEF7A6FC0546022393FAA3F272
:1019B00093FAA3F293FAA3F2B54A516A93FAA3F306
:1019C000B3FA83F303F01F03012202FA03F30B427D
:1019D00006D0FEF78FFC401B0228E6D9032076E1F3
:1019E000236813F0040F00F0B380A94BDB6913F0F8
:1019F000805F20D1A64BDA6942F08052DA61DB6960
:101A000003F080530193019B0125A24B1B6813F443
:101A1000807F12D0E368012B23D073BB03F1804396
:101A200003F504331A6A22F001021A621A6A22F0DC
:101A300004021A621AE00025E7E7964A136843F4A5
:101A400080731360FEF756FC0646924B1B6813F436
:101A5000807FDFD1FEF74EFC801B6428F5D9032080
:101A600035E18B4A136A43F001031362E368002BEC
:101A700041D0FEF73FFC06462BE0052B09D0844BF6
:101A80001A6A22F001021A621A6A22F004021A6229
:101A9000ECE77F4B1A6A42F004021A621A6A42F0BB
:101AA00001021A62E2E77A4B196A022393FAA3F35E
:101AB000B3FA83F303F01F03012202FA03F319427E
:101AC00045D1FEF717FC801B41F28833984200F2A3
:101AD000F980022393FAA3F293FAA3F3B3FA83F300
:101AE0005B0943F00203022BDDD0022393FAA3F338
:101AF000674B596AD9E7FEF7FDFB064615E0644BD4
:101B0000196A022393FAA3F3B3FA83F303F01F03D2
:101B1000012202FA03F3194219D0FEF7EBFB801BF6
:101B200041F28833984200F2CF80022393FAA3F265
:101B300093FAA3F3B3FA83F35B0943F00203022B96
:101B4000DDD0022393FAA3F3514B596AD9E7B5BB11
:101B5000E369002B00F0BA804D4A526802F00C0293
:101B6000082A00F09980022B2FD04FF0807393FA4F
:101B7000A3F3B3FA83F303F1845303F584139B00B7
:101B800000221A60FEF7B6FB04464FF0007393FA8A
:101B9000A3F33F4B19684FF0007393FAA3F3B3FA22
:101BA00083F303F01F03012202FA03F319426BD0FF
:101BB000FEF7A0FB001B0228E7D9032087E0344A88
:101BC000D36923F08053D361C2E74FF0807393FA57
:101BD000A3F3B3FA83F303F1845303F584139B0057
:101BE00000221A60FEF786FB05464FF0007393FA59
:101BF000A3F3274B19684FF0007393FAA3F3B3FADA
:101C000083F303F01F03012202FA03F3194206D003
:101C1000FEF770FB401B0228E7D9032057E01C4960
:101C20004B6823F47413626A206A024313434B60C7
:101C30004FF0807393FAA3F3B3FA83F303F1845361
:101C400003F584139B0001221A60FEF753FB044640
:101C50004FF0007393FAA3F30D4B19684FF0007324
:101C600093FAA3F3B3FA83F303F01F03012202FAFA
:101C700003F3194206D1FEF73DFB001B0228E7D90A
:101C8000032024E0002022E0002020E020819010AA
:101C90000010024000700040012B1AD00F4B5B680F
:101CA00003F48031226A914201D001200FE003F455
:101CB0007013626A93420ED0012008E00120704741
:101CC000012004E0032002E0032000E0002002B035
:101CD00070BD0120FBE70020F9E700BF00100240C3
:101CE00010B4174B5C6804F00C03082B26D104F4E5
:101CF00070124FF4701393FAA3F3B3FA83F322FA3A
:101D000003F31049C85C0E4BDB6A03F00F030F228C
:101D100092FAA2F2B2FA82F2D3400B441A7C14F483
:101D2000803F05D1084B03FB00F05DF8044B704782
:101D3000064BB3FBF2F300FB03F0F6E70348F4E7CE
:101D4000001002405847000800093D0000127A00C8
:101D5000002800F0C18070B50446614B1B6803F099
:101D600007038B420CD25E4A136823F007030B4330
:101D70001360136803F007038B4201D0012070BD8C
:101D8000236813F0020F06D0564A536823F0F0037D
:101D9000A068034353600D46236813F0010F5AD027
:101DA0006368012B2DD0022B40D0022292FAA2F2BE
:101DB0004C4A1068022292FAA2F2B2FA82F202F0BF
:101DC0001F02012101FA02F2104200F0878045490A
:101DD0004A6822F0030213434B60FEF78BFA064673
:101DE000404B5B6803F00C036268B3EB820F32D0A8
:101DF000FEF780FA801B41F288339842F0D9032025
:101E0000BDE74FF4003292FAA2F2364A10684FF45E
:101E1000003292FAA2F2B2FA82F202F01F0201211B
:101E200001FA02F20242D2D10120A8E74FF000727B
:101E300092FAA2F22B4A10684FF0007292FAA2F2C4
:101E4000B2FA82F202F01F02012101FA02F21042FC
:101E5000BDD1012093E7224B1B6803F00703AB427F
:101E60000CD91F4A136823F007032B431360136830
:101E700003F00703AB4201D0012080E7236813F091
:101E8000040F06D0174A536823F4E063E1680B435C
:101E90005360236813F0080F07D0124A536823F4E5
:101EA0006053216943EAC1035360FFF719FF0D4BEB
:101EB0005B6803F0F003F02292FAA2F2B2FA82F227
:101EC000D340094AD35CD840084B1860084B1868C7
:101ED000FEF7CEF9002052E70120704701204EE7BF
:101EE0000020024000100240784700080C04002047
:101EF00004000020014B1868704700BF0C0400204C
:101F000008B5FFF7F7FF074B5B6803F4E0634FF496
:101F1000E06292FAA2F2B2FA82F2D340024AD35CB1
:101F2000D84008BD001002408847000808B5FFF7F8
:101F3000E1FF074B5B6803F460534FF4605292FA81
:101F4000A2F2B2FA82F2D340024AD35CD84008BD72
:101F50000010024088470008F0B583B004460368CB
:101F600013F4803F48D0934BDB6913F0805F40F05F
:101F7000D580904BDA6942F08052DA61DB6903F078
:101F800080530193019B01258B4B1B6813F4807FC9
:101F900000F0C680874B1B6A13F4407322D062683E
:101FA00002F440729A421DD08248016A21F44076C0
:101FB0004FF4803393FAA3F2B2FA82F27F4F3A449D
:101FC00092004FF0010CC2F800C093FAA3F3B3FAE9
:101FD00083F33B449B0000221A60066211F0010F5C
:101FE00040F0B380734A136A23F4407361680B4373
:101FF0001362002D40F0D580236813F0010F06D046
:102000006C4A136B23F00303A1680B43136323682B
:1020100013F0020F06D0674A136B23F44033E168D4
:102020000B431363236813F0040F06D0614A136B4C
:1020300023F4402321690B431363236813F0200F1B
:1020400006D05C4A136B23F01003E1690B43136362
:10205000236813F4003F06D0564A536823F48003E4
:10206000A16B0B435360236813F0400F06D0514A15
:10207000136B23F02003216A0B431363236813F0CF
:10208000080F06D04B4A136B23F4401361690B43CE
:102090001363236813F0100F06D0464A136B23F422
:1020A0004003A1690B431363236813F4007F06D038
:1020B000404A536823F40003E16A0B4353602368EA
:1020C00013F0800F06D03B4AD36A23F4F873616A99
:1020D0000B43D362236813F4807F06D0354AD36A5A
:1020E00023F47853A16A0B43D362236813F4805F0F
:1020F00006D0304A136B23F48073216B0B431363B8
:10210000236813F4005F53D02A4A136B23F400733F
:10211000616B0B431363002003B0F0BD002533E770
:10212000254A136843F480731360FEF7E3F806460C
:10213000214B1B6813F4807F7FF42CAFFEF7DAF895
:10214000801B6428F4D90320E6E7FEF7D3F806469F
:1021500015E0184B196A022393FAA3F3B3FA83F339
:1021600003F01F03012202FA03F30B427FF43AAF9C
:10217000FEF7C0F8801B41F28833984216D802233C
:1021800093FAA3F293FAA3F3B3FA83F35B0943F050
:102190000203022BDDD0022393FAA3F3054B596A05
:1021A000D9E7D36923F08053D36125E70320B3E750
:1021B0000020B1E700100240007000400081901044
:1021C00010B5044683680269134342691343C26928
:1021D0001A4301680B6823F4164323F00C031343DE
:1021E0000B600268536823F44053C1680B4353608B
:1021F0008269036A1A4301688B6823F430631343CE
:102200008B600368964A93421FD0964A93422ED021
:10221000954A934244D0954A93425AD0944A934265
:1022200070D01023E269B2F5004F00F08680082BD1
:1022300000F20F81DFE813F0D000E500EF000D01A0
:10224000FA000D010D010D0104018A4B1B6B03F017
:102250000303032B09D8DFE803F00204066E012311
:10226000E0E70423DEE70823DCE71023DAE7814B0D
:102270001B6B03F44033B3F5803F0BD007D9B3F5A4
:10228000003F09D0B3F5403F08D10223CAE72BB97C
:102290000023C7E70423C5E70823C3E71023C1E7EA
:1022A000744B1B6B03F44023B3F5802F0BD007D97D
:1022B000B3F5002F09D0B3F5402F08D10223B1E7C1
:1022C0002BB90023AEE70423ACE70823AAE71023C9
:1022D000A8E7684B1B6B03F44013B3F5801F0BD0CA
:1022E00007D9B3F5001F09D0B3F5401F08D1022369
:1022F00098E72BB9002395E7042393E7082391E798
:1023000010238FE75B4B1B6B03F44003B3F5800F87
:102310000BD007D9B3F5000F09D0B3F5400F08D1A2
:1023200002237FE72BB900237CE704237AE7082305
:1023300078E7102376E7022374E7082B49D8DFE813
:1023400003F0051E2948344848483F00FFF7D8FDF0
:102350006268530803EB4003B3FBF2F39BB2002027
:10236000A3F110014FF6EF72914275D89AB222F0A4
:102370000F02C3F3420313432268D3603DE0FFF72B
:10238000D5FD6268530803EB4003B3FBF2F39BB245
:102390000020E5E76268530803F5740303F5105362
:1023A000B3FBF2F39BB20020DAE7FFF799FC626817
:1023B000530803EB4003B3FBF2F39BB20020CFE7DB
:1023C0006268530803F58033B3FBF2F39BB200203D
:1023D000C6E701200023C3E7FFF792FD626800EB28
:1023E0005203B3FBF2F39BB20020A3F110014FF6AE
:1023F000EF72914232D82268D3600023236663666D
:1024000010BDFFF793FD626800EB5203B3FBF2F3DC
:102410009BB20020E9E76268530803F5F40303F573
:102420009053B3FBF2F39BB20020DEE7FFF758FCBA
:10243000626800EB5203B3FBF2F39BB20020D4E7D7
:102440006268530803F50043B3FBF2F39BB200202C
:10245000CBE701200023C8E70120CEE70120CCE72D
:10246000003801400044004000480040004C00405B
:102470000050004000100240436A13F0010F06D0E4
:102480000268536823F40033816A0B435360436A44
:1024900013F0020F06D00268536823F48033C16A38
:1024A0000B435360436A13F0040F06D0026853686D
:1024B00023F48023016B0B435360436A13F0080F2E
:1024C00006D00268536823F40043416B0B4353600A
:1024D000436A13F0100F06D00268936823F4805308
:1024E000816B0B439360436A13F0200F06D00268A0
:1024F000936823F40053C16B0B439360436A13F05A
:10250000400F0AD00268536823F48013016C0B4318
:102510005360036CB3F5801F0BD0436A13F0800F38
:1025200006D00268536823F40023816C0B43536088
:1025300070470268536823F4C003416C0B43536037
:10254000EBE72DE9F04104460F4616469846069DF6
:102550002368DB6937EA03030CBF01230023B3427E
:102560003AD1B5F1FF3FF3D0FDF7C4FEA0EB080070
:10257000A8421FD8F5B123681A6812F0040FE7D0FB
:10258000DA6912F4006FE3D04FF400621A62226835
:10259000136823F4D07313602268936823F0010357
:1025A000936020236367A367E367002384F8703098
:1025B000032012E02268136823F4D07313602268AA
:1025C000936823F00103936020236367A3670023CC
:1025D00084F87030032000E00020BDE8F0812DE990
:1025E000F04182B01E46436F202B55D104460D4664
:1025F0009046002955D0002A55D090F87030012B14
:1026000053D0012380F870300023C3672123436730
:10261000FDF770FE0746A4F85080A4F85280A36826
:10262000B3F5805F02D04FF0000813E0236913B1C7
:102630004FF000080EE0A84600250BE038F8023BFA
:102640002268C3F308031385B4F85230013B9BB2F0
:10265000A4F85230B4F852309BB273B100963B46A6
:10266000002280212046FFF76CFF00BB002DE5D043
:10267000236815F8012B1A85E6E700963B460022F1
:1026800040212046FFF75DFF034690B92022626794
:10269000002284F8702000E00223184602B0BDE852
:1026A000F0810123F9E70123F7E70223F5E703238C
:1026B000F3E70323F1E730B583B004460023C36793
:1026C000FDF718FE054623681B6813F0080F0CD1B0
:1026D00023681B6813F0040F15D120236367A367D9
:1026E000002084F8700003B030BD6FF07E4300938B
:1026F000034600224FF400112046FFF722FF002876
:10270000E6D00320EFE76FF07E4300932B460022D4
:102710004FF480012046FFF714FF0028DDD003208E
:10272000E1E768B310B50446436F03B3242363673E
:102730002268136823F0010313602046FFF740FD71
:10274000012813D0636ABBB92268536823F490430D
:1027500053602268936823F02A0393602268136809
:1027600043F0010313602046FFF7A5FF10BD80F87A
:10277000703000F0F5FAD9E72046FFF77DFEE3E779
:102780000120704700B58BB000230793089309938D
:102790000193029303930493059306931F484FF00C
:1027A000A04202604FF44032426083600361012224
:1027B000427680F82030C3628262C360C26180F8D2
:1027C00030200422426103764363FDF7BBFED8B993
:1027D000062307934FF4004308930023099307A9A6
:1027E0000E48FEF7D3FB90B9012301930293002317
:1027F000049303930593069301A90848FEF7F0F9A3
:1028000040B90BB05DF804FB00F0CCF9E0E700F054
:10281000C9F9E9E700F0C6F9F3E700BF100B0020A3
:1028200000B587B0002300930193029303930493B0
:1028300005931748174A02604FF4403242608360A4
:1028400003610122427680F82030C360C26180F8C3
:1028500030300422426103764363FDF773FE80B992
:102860000223009301230193002303930293049313
:10287000059369460648FEF7B3F928B907B05DF835
:1028800004FB00F08FF9EBE700F08CF9F6E700BFEE
:10289000C00A00200001005010B58AB00023059343
:1028A00006930793089309930368B3F1A04F04D0EC
:1028B000344A934240D00AB010BD0446324A1368ED
:1028C00001331360012B29D0304B5A6942F4003296
:1028D0005A615B6903F400330293029B0123059361
:1028E0000323069305A94FF09040FEF77FFD28488B
:1028F000284B03600023436083608022C2604FF452
:10290000007202614FF4006242618361C361FEF7AD
:102910008FFC70B91E4BA3635C62CCE71B4B5A69FA
:1029200042F080525A615B6903F080530193019B2E
:10293000CAE700F037F9EDE7134A13680133136073
:10294000012B13D0114B5A6942F400325A615B6972
:1029500003F400330493049B20230593032306937D
:1029600005A94FF09040FEF741FDA4E7074B5A69D7
:1029700042F080525A615B6903F080530393039BDA
:10298000E0E700BF0001005090040020001002406A
:10299000600B00200800024000B583B00A4B5A6962
:1029A00042F001025A615B6903F001030193019B4C
:1029B000002211460B20FEF7A7FB0B20FEF7D8FBE9
:1029C00003B05DF804FB00BF0010024070B506467E
:1029D0000C460A4D012300224FF48071284600F076
:1029E00013FB22463146284600F08EFA4FF48072DF
:1029F0002146204600F07EFB70BD00BF94040020FD
:102A000010B5002308E030F82310A1F26C71094AD8
:102A100002EB430211830133D0F800249A42F2D82A
:102A2000044800F5067421461830FFF7CFFF204612
:102A300010BD00BF9404002008B5FFF7E1FF372266
:102A4000722A07DC30F9123005339BB20A2B03D807
:102A50000132F5E7002000E0012008BD82B00A4BFA
:102A60005A6942F400325A615A6902F40032009203
:102A7000009A5A6942F400225A615B6903F4002308
:102A80000193019B02B070470010024030B59FB027
:102A90002422002115A801F045FA00240F94109477
:102AA0001194129413943C222146684601F03AFA9C
:102AB00002231493012518951023199314A8FEF7E7
:102AC000EDFD0F230F931094A02311934FF4E063B7
:102AD0001293139321460FA8FFF73AF90095029538
:102AE0006846FFF739FA1FB030BD000030B5A1B01D
:102AF000FDF7E2FBFFF7CAFFFFF7B0FFFFF74CFF60
:102B0000FFF740FEFFF78CFE00F00EF900F04CF8E6
:102B10001D48FEF7A7FD80220021684601F002FA59
:102B20004FF47A521949684601F004FA64231822D6
:102B300069461748FFF753FD164C2046FDF70EFF78
:102B40002046FDF749FE144D2846FDF7C3FF134C00
:102B5000D4F8002421462846FDF726FF2046FFF73B
:102B60006BFF0128E8D10E4B93E803000090ADF80D
:102B70000410090C8DF806106423062269460448E7
:102B8000FFF72DFDD8E700BFA40B002090470008F9
:102B9000D80B0020C00A0020100B002008000020E5
:102BA000A84700087047000008B50A480A4B0360B0
:102BB000402343600C23C360002303614FF4403281
:102BC000C26103624362FEF7DBFC00B908BDFFF798
:102BD000E9FFFBE7A40B00203800014000B587B0F7
:102BE00000230193029303930493059302680E4B11
:102BF0009A4202D007B05DF804FB03F5873303F572
:102C0000E4735A6942F400325A615B6903F4003399
:102C10000093009B0E2301930323029301A94FF01D
:102C20009040FEF7E3FBE5E73800014082B00A4B35
:102C30009A6942F001029A619A6902F001020092D7
:102C4000009ADA6942F08052DA61DB6903F080535E
:102C50000193019B02B07047001002407047FEE7ED
:102C6000FEE7FEE7FEE770477047704708B5FDF7DF
:102C700035FB08BD08B50248FEF75EFB08BD00BF86
:102C8000600B002008B503460B4A126842B10A4A9D
:102C9000106803446A46934206D8074A136008BD89
:102CA000054A06491160F2E701F012F90C230360AE
:102CB0004FF0FF30F3E700BFAC0A0020600C0020AB
:102CC0001549D1F8883043F47003C1F88830134BAC
:102CD0001A6842F001021A605868114A02405A60AC
:102CE0001A6822F0847222F480321A601A6822F480
:102CF00080221A605A6822F4FE025A60DA6A22F0D0
:102D00000F02DA62186B074A02401A6300229A60C7
:102D10004FF000638B60704700ED00E00010024050
:102D20000CC07FF8CCFC00FF08B50B480B4B0360D0
:102D30004FF41653436000238360C36003610C2289
:102D400042618361C36103624362FFF7EAFC00B939
:102D500008BDFFF727FFFBE7D80B00200038014034
:102D600000B589B00023039304930593069307935A
:102D70000268134B9A4202D009B05DF804FB03F5D8
:102D800058439A6942F480429A619A6902F48042F7
:102D90000192019A5A6942F400225A615B6903F474
:102DA00000230293029B3023039302230493032303
:102DB00006930723079303A90248FEF717FBDBE7F7
:102DC0000038014000080048DFF834D0002103E05B
:102DD0000C4B5B58435004310B480C4B42189A4241
:102DE000F6D30B4A02E0002342F8043B094B9A4217
:102DF000F9D3FFF765FF01F071F8FFF777FEFEE703
:102E000000A0002044660108000000207404002097
:102E1000740400205C0C0020FEE700002DE9F04F58
:102E200089B0139D01F18044013CAD00A600012949
:102E30000495079006962A442B444CD98446129F49
:102E400006F1080007EBC1096146341F08180CEBB6
:102E5000040805900CF10804019334F9040C01995D
:102E60000290B8F904E0B1F90210B2F90050029BE7
:102E7000039105FB03F001FB0EF6019934F902BC46
:102E8000B1F900A0B2F902C0B8F906100CFB1B00A2
:102E900001FB1A660AFB0E000BFB0565039E0CFB8B
:102EA000035506FB0101019B049E2D14334401933D
:102EB000059B0434091468429C42B980FD80324469
:102EC00029F8020C29F8041CA8F1040807F10407EA
:102ED000A9F10409C1D10021079C129DB4F9002079
:102EE000B4F90200069B121A2B4452109A80D98022
:102EF000B4F90030B4F90220698013445B102B80D0
:102F000009B0BDE8F08F00BF2DE9F04F044600681E
:102F100089B023790592420802926269012B0692D8
:102F20000F4611D010461A46637900F047FAA3689D
:102F3000059A0193009202993846D4E90323FFF7DA
:102F40006DFF09B0BDE8F08F0299D4E90365A2686E
:102F50008800002941D093000493059B043838442D
:102F600007F1040E1A1D07943EF9021CB5F9003052
:102F70000F46B0F90440B6F900A003FB04F1039733
:102F800007FB0AF73EF9049CB6F902C0B5F902B096
:102F9000B0F906800CFB19770BFB18110BFB1474AE
:102FA0000AFB0911039F08FB13440CFB071C049B3D
:102FB00024141E441D44029B4FEA2C4C013B22F872
:102FC000024C22F804CC0EF1040EA0F1040002F130
:102FD00004020293C8D1079C2379059D1A460698DE
:102FE0006379294600F0EAF92368002BA9D0002173
:102FF000AA1E32F9023F01315B00138023688B4225
:10300000F7D809B0BDE8F08F30B489B22E4D2F4CFF
:10301000B1F5007F027143710160C0E9035435D0FE
:1030200019D9B1F5006F37D00CD9B1F5805F39D01F
:10303000B1F5005F26D10122254B8260436100205B
:1030400030BC7047B1F5806F1CD10822214B8260E3
:1030500043610020F4E740292AD00AD980292DD0E5
:10306000B1F5807F0ED120221B4B8260436100208E
:10307000E6E7202906D14FF48072184B8260436145
:103080000020DDE74FF0FF3030BC70471022144BBA
:10309000826043610020D3E70422124B82604361C7
:1030A0000020CDE70222104B826043610020C7E779
:1030B00080220E4B826043610020C1E740220C4B0E
:1030C000826043610020BBE73886000838C60008EC
:1030D0001048000820480008C0470008D0470008F2
:1030E000F0470008B0470008E04700080048000823
:1030F00030480008F0B4970841D03E4600F108047B
:1031000001F1080334F9085C002D06DC15F5004FC9
:103110000EBF47F6FF756D422DB223F8085C34F9F7
:10312000065C002D06DC15F5004F0EBF47F6FF7557
:103130006D422DB223F8065C34F9045C002D06DCE8
:1031400015F5004F0EBF47F6FF756D422DB223F8FF
:10315000045C34F9025C002D06DC15F5004F0EBF4F
:1031600047F6FF756D422DB2013E23F8025C04F173
:10317000080403F10803C5D1FF003844394412F0B4
:10318000030219D0B0F90030002B17DD013A0B8093
:1031900012D0B0F90230002B18DD012A4B800BD081
:1031A000B0F90430002B06DC13F5004F0EBF47F6D4
:1031B000FF735B421BB28B80F0BC704713F5004F6E
:1031C0001ABF5B421BB247F6FF73DFE713F5004FF0
:1031D0000EBF47F6FF735B421BB2012A4B80DFD163
:1031E000EAE700BF2DE9F04F00EB410383B04F0841
:1031F000904601935FD00446002300EB870902321A
:1032000009F1020B009200F1020A34F9235039F956
:1032100023206D105210A8180099401038F923E0AF
:1032200031F9231024F823003AF923C03BF9230095
:103230004FEA6C0C4010AA1AACEB000601FB06F535
:1032400001FB02F106FB0EF60EFB02F260442D14A8
:1032500009144010C1EB264605EB22422AF8230050
:1032600029F823202BF8236001339F42CDD1394622
:1032700002234246204600F00DF9394642460198A5
:10328000022300F007F904EBC707B4F90000B4F912
:103290000210B4F90420B4F906304000490052008D
:1032A0005B0020806180A280E3800834A742ECD1DB
:1032B00003B0BDE8F08F3946022300F0EBF8424638
:1032C00039460223019803B0BDE8F04F00F0E2B8A0
:1032D0002DE9F04F00EB410383B04F089046019376
:1032E0005FD00446002300EB8709023209F1020B8C
:1032F000009200F1020A34F9235039F923206D10AD
:103300005210A8180099401038F923E031F9231021
:1033100024F823003AF923C03BF923004FEA6C0C50
:103320004010AA1AACEB000601FB06F501FB02F106
:1033300006FB0EF60EFB02F260442D140914401039
:1033400001EB2646C5EB22422AF8230029F8232068
:103350002BF8236001339F42CDD1394602234246E8
:10336000204600F023FB394642460198022300F034
:103370001DFB04EBC707B4F90000B4F90210B4F95F
:103380000420B4F906304000490052005B00208060
:103390006180A280E3800834A742ECD103B0BDE88D
:1033A000F08F3946022300F001FB424639460223E2
:1033B000019803B0BDE8F04F00F0F8BA70B5012AEB
:1033C0000E4604461D46018833D0B1F5807F2AD0D1
:1033D0000BD9B1F5806F26D01BD9B1F5006F0BD09A
:1033E000B1F5805F1FD06DB970BD202904D018D908
:1033F000402918D08029F6D162683046FFF7F2FEE6
:10340000002DF1D03046A268A189BDE8704000F0DF
:103410003FBDB1F5007FE6D162683046FFF7E2FEBE
:10342000EEE71029DFD101236268304600F032F860
:10343000D9E7B1F5807F0AD00FD9B1F5806F06D0FA
:1034400017D9B1F5006F0FD0B1F5805FCBD1012353
:103450006268304600F0AAFAC5E7202904D010D9E6
:103460004029F4D08029BED162683046FFF730FF92
:10347000B9E7B1F5007FB6D162683046FFF728FFA3
:10348000B1E71029AFD101236268304600F08EFA0F
:10349000A9E700BF2DE9F04F83469BB0079189084B
:1034A000824688000493831C5B4401930BEBC103A9
:1034B0000593134600260C46023313920D910E908D
:1034C0000BEB000914930096CDF818B0554609F19E
:1034D00002031E4635F9023B36F9340035F93480D3
:1034E0000395019DB9F902E039F93410BAF90220C7
:1034F00035F902CC80104FEAA808149D921000EB19
:10350000AE00891000F30F000FFA80FE01EBAC0152
:103510004FEA6E0001F30F010FFA81FC02EB080184
:1035200001F30F0109B200EB6100A1EB0E01AE4601
:1035300001F30F013AF934709B10BF10AAF8020092
:103540004FEA6C0BD81900F30F0000B20BEB600BC5
:10355000009DAAF800B03EF935E0139D09B2AB46D4
:10356000009DA0EB0C003BF935B001FB0EFC00F315
:103570000F0001FB0BF100B20EFB101100FB0BC0A2
:10358000019D09140014B9F902E035F902CC25F8BF
:10359000020CA9F8021036F9340039F93410801001
:1035A000009DA2EB0802C0EBAE0000F30F000FFA83
:1035B00080F81398891030F92500DB1BC1EBAC01B2
:1035C00002F30F0203F30F0312B21BB201F30F0158
:1035D00009B2A2EB010C03EB080E0CF30F0C0EF377
:1035E0000F0E0FFA8CFC0FFA8EFE149D02960EFB46
:1035F00000FB009E00FB0CF035F926700A4407FB27
:103600001E0002F30F020CFB07B73F142AF83470B8
:1036100006EB4607039E001426F83400139812B2F6
:1036200030F92700A3EB080303F30F031BB203FBDE
:1036300000F100FB02F035F92750019F02FB051253
:1036400005FB1303029912141B1429F83420049863
:10365000009A21F83430059B09F10409043702442B
:103660004B4501970AF1040A00927FF42FAF8300C3
:1036700015930D9BDDF818B0042B40F28F81D846CE
:103680000BF1020900220D9B0F929B089900CDE9D6
:103690001112149A08EBC30C10921A46E3461893C1
:1036A000159B013A03EB43039B0019910CF1020AAD
:1036B00016921793129B1399149831F923200192B3
:1036C00030F92320049231F93320089230F9332065
:1036D0000592109A32F9021C099115990B44129324
:1036E000B2F900300F9A0693079B934240F2AF80E5
:1036F0001046059B11995B420A93049B5B420B9316
:10370000069B5B420C9339F9203039F901201D46A4
:103710003AF920303AF90140039505EB030E38F9E8
:10372000205038F90170009514443BF901500EF314
:103730000F0E04F30F044EF34E0E44F34E04AEEBA3
:10374000040C059A3BF920600FFA8CFC2F44009D75
:10375000744402FB0CFE07F30F07089A47F34E0769
:10376000354405F30F0545F34E0502FB0CFC0296AC
:10377000EE1B36B202FB06EE0A9A3D4402FB06C679
:1037800064106D1028F820504FEA2E4E29F8204082
:10379000361438F9015039F9014028F801E029F8C8
:1037A00001603BF90170039A3AF90160D31AEF1BEB
:1037B000029A009D03F30F0307F30F0743F34E0331
:1037C00047F34E07BFB29BB2AA1AA41BDD1B049E8F
:1037D0002DB23B4406FB05F702F30F0204F30F047E
:1037E000019E42F34E0206FB05F544F34E04A4B2DB
:1037F00092B2A2EB040C099E2244019C0FFA8CFCAD
:1038000012B2009504FB027706FB0CFE0B9C009D98
:103810001BB206FB03F604FB0252069C121404FBC7
:1038200003E30C9C1B1404FB0C663F142BF8207064
:103830002AF820202BF801300E9B36140D9A2AF816
:1038400001601944079B104483423FF65CAF119A14
:10385000179904321192109A0F9B0A441092169AEB
:10386000013393420F937FF625AF189B159A042BD3
:103870004FEA82020D93159202D99B000E9301E745
:10388000C34623F00300079A0BEB0007D31A07EB9C
:10389000000A03930AF1020300249C460097CDF826
:1038A0001090049F3AF924E037F924303BF92410B2
:1038B00001933CF924303BF900900293009B3AF9C4
:1038C0000020B3F902503CF9006001EB0E084A44B5
:1038D0002E4408F30F08DDE9015302F30F021D44E3
:1038E00048F34E0842F34E0206F30F0605F30F05A8
:1038F00046F34E0645F34E051FFA88F8B6B292B26B
:10390000ADB208EB0209A8EB020205EB06082BF8A2
:10391000249027F82480009FAD1BB7F902803BF963
:1039200000602BF800207D803CF900203AF900501F
:10393000DDE90173A1EB0E01FB1A01F30F0103F3A3
:103940000F0341F34E0143F34E03A8EB020202F3CF
:103950000F0242F34E02751B89B29EB205F30F05AA
:1039600093B245F34E0501EB030EADB2C91A189B95
:10397000721B2AF824E0009F2CF824201C44199B79
:1039800035441F442AF8001000972CF800501844C2
:10399000039B9C4285D91BB0BDE8F08F18939B0018
:1039A00019930BF10209189B6BE700BF2DE9F04F4B
:1039B000044682469BB006918908199088000393BB
:1039C000831CE5180AEBC1030493134604EB0009BA
:1039D0004FF0000B0C46023314920C910D90129391
:1039E0000095554609F1020335F9027B33F934009D
:1039F000009EB9F902E039F9341035F934C0BAF94A
:103A0000022036F9026C801001934FEAAC0C3AF9AF
:103A10003430921000EBAE00891000F30F000FFA63
:103A200080FE01EBA60102EB0C0001F30F0100F395
:103A30000F000EB200B24FEA6E01BF1001EB600141
:103A40009B10AAF802104FEA6608F91801F30F015B
:103A500009B2029508EB6108149DAAF80080A0EB5A
:103A60000E0035F93BE0891B00F30F0001F30F0155
:103A700000B209B201FB0EF6129D00FB0EFE35F9F5
:103A80003B80009D00FB186008FB01E10014091455
:103A900035F9026CA2EB0C02B9F902C025F8020C50
:103AA000A9F802100199149D31F9340039F9341044
:103AB00080108910FB1AC0EBAC00C1EBA60102F329
:103AC0000F0235F92B6012B203F30F0300F30F005E
:103AD0001BB200B201F30F0109B2A3EB000E02EB1F
:103AE000010C0EF30F0E0CF30F0C0FFA8EFE0FFAF3
:103AF0008CFC0EFB06F8129F0CFB06F637F92B70B8
:103B0000034407FB0E6603F30F030CFB17873F14F8
:103B10002AF83470029F36140BEB4B0027F8346000
:103B200035F920501BB2521A02F30F0212B203FBF6
:103B300005F1129F02FB05F537F92000009E02FBFC
:103B4000101200FB035301991B14121429F834209E
:103B500021F83430049B09F10409039804364B45DD
:103B600000960AF1040A83447FF43BAF8300139369
:103B70000C9B042B40F2FA80199B02330193002224
:103B80000C9B0E929B089900CDE910121891129A85
:103B900019990F9201EBC30A1A460AF10208C146AD
:103BA0008B461793139B013A03EB43039B0015923B
:103BB0001693119B1499129831F92320079230F92A
:103BC0002320089231F93320099230F933200392EF
:103BD0000F9A32F9021C0A9113990B441193B2F90E
:103BE00000300E9A0B93069B934240F2A6801099E8
:103BF00000920098019C3BF920203AF92030029273
:103C00001A46034615463BF901603AF901C0049291
:103C1000029A34F92000675E39F9233039F90140FE
:103C20001544B44405F30F050CF30F0C45F34E0592
:103C30004CF34E0C0590A5EB0C062744C4180998CC
:103C400036B200FB06F807F30F0704F30F0447F33F
:103C50004E0744F34E04A4EB070E039A0FFA8EFEB0
:103C600002FB1E8800FB0EFE039A009802FB06EE84
:103C70006544019E3C446D1064102BF820504FEABF
:103C8000284826F820404FEA2E4E0498029A755E86
:103C90003BF901402BF8018026F801E03AF9017068
:103CA00039F90160121A0598AE1BC31AE41B02F31E
:103CB0000F0203F30F0342F34E0243F34E0306F3E6
:103CC0000F0604F30F0446F34E0644F34E04B6B257
:103CD000A4B292B29BB20798971B1D193FB22DB2A6
:103CE00000FB07FE00FB05FC32440A981B1B12B2C6
:103CF0001BB200FB02F600FB03F80898009C00FBD7
:103D000015E500FB07C70B982D1400FB136300FBA0
:103D100002821B143F142AF8245029F824702AF830
:103D200001300D9B12140C9829F801201944069BB0
:103D30000444A34200943FF65CAF109A16990432F3
:103D400010920F9A0E9B0A440F92159A01339342D8
:103D50000E937FF62EAF179B139A042B4FEA820225
:103D60000C93139208D99B000D9308E7199A1793A7
:103D700002329B0001921893199A00249446179BD3
:103D8000069923F00300171807EB000ACB1A0493D7
:103D90000AF1020B0097019F3AF924E037F9243029
:103DA0003CF9241002933BF924303CF90090039332
:103DB000009B3AF90020B3F902503BF9006001EB97
:103DC0000E084A442E4408F30F08DDE9025302F3BB
:103DD0000F021D4448F34E0842F34E0206F30F064D
:103DE00005F30F0546F34E0645F34E051FFA88F816
:103DF000B6B292B2ADB208EB0209A8EB020205EB33
:103E000006082CF8249027F82480009FAD1BB7F9F2
:103E100002803CF900602CF800207D803BF90020F6
:103E20003AF90050DDE90273A1EB0E01FB1A01F330
:103E30000F0103F30F0341F34E0143F34E03A8EBCD
:103E4000020202F30F0242F34E02751B89B29EB2C8
:103E500005F30F0593B245F34E05A1EB030EADB28A
:103E60001944179B72192AF824E0009F2BF824208C
:103E70001C44189B751B1F442AF8001000972BF850
:103E800000501844049B9C4285D91BB0BDE8F08FBC
:103E9000E9B10023F0B502EB430432F81350648813
:103EA000AD08A40830F814E030F815C066006F00C3
:103EB00020F815E0023320F814C0B51CBC1C065BCA
:103EC000475B9BB2994207534653E4D8F0BD704715
:103ED000014B1868704700BF1004002070B50D4EEC
:103EE0000D4CA41BA4100025A54209D10B4E0C4C6F
:103EF00000F026FCA41BA4100025A54205D170BD2E
:103F000056F8253098470135EEE756F825309847A2
:103F10000135F2E73C6601083C6601083C66010891
:103F20004066010802440346934200D1704703F8FB
:103F3000011BF9E70EB400B59CB01DAB02900690D2
:103F40006FF00041094807910491094953F8042B87
:103F500005910068019302A900F066F8029B002217
:103F60001A701CB05DF804EB03B070471004002019
:103F70000802FFFF2DE9F0478E689E4282460C46FC
:103F80009046994637D88A8912F4906F31D02568C7
:103F900009696F1A6569022305EB450595FBF3F581
:103FA00009F101033B449D4238BF1D46530530D5FE
:103FB000294600F02BFB064650B90C23CAF8003006
:103FC000A38943F04003A3814FF0FF30BDE8F087A1
:103FD0003A46216900F0A8FAA38923F4906343F0DC
:103FE0008003A381266165613E44ED1B2660A560C8
:103FF0004E464E4500D94E4632464146206800F0B6
:104000009EFAA3689B1BA36023681E4426600020C1
:10401000DCE72A4600F054FB06460028E2D121697D
:10402000504600F0A5FAC8E72DE9F04F1D468B89F0
:104030001F069DB080460C4616460FD50B696BB91E
:10404000402100F0E3FA2060206128B90C23C8F871
:1040500000304FF0FF30C8E0402363610023099334
:1040600020238DF8293030238DF82A3003954FF026
:10407000010B37463D4615F8013B0BB1252B3ED1D0
:10408000B7EB060A0BD05346324621464046FFF7AF
:1040900071FF013000F0A480099B534409933B78E1
:1040A000002B00F09D8000234FF0FF32CDE9052367
:1040B000049307938DF853301A932F46052217F86F
:1040C000011B5048FCF784F8049BD0B9D90644BFC3
:1040D00020228DF853201A0744BF2B228DF853203D
:1040E0002A782A2A15D0079A2F4600200A25394611
:1040F00011F8013B303B092B4DD9B8B10FE02F46E9
:10410000B8E7404A801A0BFA00F0184304903D4685
:10411000D3E7039A111D12680391002A01DB07926D
:1041200004E0524243F00203079204933B782E2BA3
:104130000CD17B782A2B33D1039B1A1D1B68039269
:10414000002BB8BF4FF0FF33023705932E4D39785F
:1041500003222846FCF73CF838B14023401B03FA01
:1041600000F0049B034301370493397827488DF806
:10417000281006227E1CFCF72BF8002838D0244B90
:1041800013BB039B073323F0070308330393099BF7
:104190004B4409936DE705FB023201200F46A6E769
:1041A00000230137059319460A25384610F8012BDC
:1041B000303A092A03D9002BC8D00591C6E705FB80
:1041C000012101230746F0E703AB00932246114B80
:1041D00004A94046AFF30080B0F1FF3F8146D6D13D
:1041E000A3895B063FF535AF09981DB0BDE8F08F98
:1041F00003AB00932246074B04A9404600F082F827
:10420000EAE700BF086601080E66010812660108A9
:1042100000000000753F00082DE9F04791461F4659
:104220008A680B69DDF820809342B8BF1346C9F84D
:10423000003091F8432006460C4612B10133C9F80C
:1042400000302368990642BFD9F800300233C9F81C
:104250000030256815F0060507D104F1190AE36856
:10426000D9F800209B1AAB4228DC94F8433022682E
:10427000003318BF012392062DD404F143023946BE
:104280003046C047013020D02368E568D9F80020C7
:1042900003F00603042B08BFAD1AA36822690CBF04
:1042A00025EAE57500259342C4BF9B1AED184FF02F
:1042B00000091A344D451AD1002008E00123524666
:1042C00039463046C047013003D14FF0FF30BDE8DA
:1042D000F0870135C3E7E1185A1C302081F843000C
:1042E000224494F8451082F843100233C5E70123B5
:1042F000224639463046C0470130E6D009F101096F
:10430000D8E700002DE9F04301F1430C0C46097E8B
:1043100085B06E291746064698460C9A00F0B38081
:1043200022D8632936D00AD8002900F0B98058294C
:1043300000F0838004F1420584F8421032E06429E1
:1043400001D06929F6D120681368050603F104013C
:104350002AD51B681160002B03DA2D225B4284F8FA
:1043600043206F480A2239E0732900F09D8008D865
:104370006F2920D07029DDD1236843F0200323600A
:1043800003E0752917D07829D4D1782384F84530F3
:10439000644855E01368191D1B68116004F142055B
:1043A00084F8423001238CE01B68116010F0400F4C
:1043B00018BF1BB2CFE713682568181D10602806C8
:1043C00001D51B6802E06806FBD51B8854486F299D
:1043D00014BF0A220822002184F843106568A560F2
:1043E000002DC0F29580216821F004012160002B8E
:1043F0003DD1002D40F08E806546082A0BD1236800
:10440000DB0708D5236962689A42DEBF302305F8CE
:10441000013C05F1FF35ACEB05032361CDF80080CD
:104420003B4603AA21463046FFF7F6FE01304DD148
:104430004FF0FF3005B0BDE8F083394884F84510EF
:10444000136821681D1D1B6815600A060BD5CA0775
:1044500044BF41F0200121601BB9226822F02002F4
:1044600022601022B7E74D0648BF9BB2EFE76546D2
:10447000B3FBF2F102FB1133C35C05F8013D0B46BF
:104480000029F5D1B9E7136825686169181D106026
:1044900028061B6801D5196002E06A06FBD5198061
:1044A000002323616546B9E71368191D11601D6873
:1044B000626800212846FBF78BFE08B1401B606054
:1044C00063682361002384F84330A7E723692A4601
:1044D00039463046C0470130AAD023689B0713D421
:1044E000E068039B9842B8BF1846A3E701234A46F9
:1044F00039463046C04701309AD00135E368039A07
:104500009B1AAB42F2DCEBE7002504F11909F5E751
:10451000002BACD1037884F8423004F142056CE7FB
:10452000196601082A66010810B5431E0A44914223
:1045300000D110BD11F8014B03F8014FF7E7884295
:1045400010B501EB020307D8421E99420AD011F8B8
:10455000014B02F8014FF8E78342F5D98118D21ACE
:10456000D34200D110BD13F8014D01F8014DF7E71A
:1045700038B50546002945D051F8043C0C1F002BE6
:10458000B8BFE41800F0D2F81F4A1368104633B9D8
:10459000636014602846BDE8384000F0C8B8A34204
:1045A0000CD921686218934204BF1A685B68636083
:1045B00004BF521822600460ECE713465A680AB13F
:1045C000A242FAD919685818A0420BD120680144B8
:1045D000581882421960DDD1106852685A6001444F
:1045E0001960D7E702D90C232B60D3E72068211884
:1045F0008A4204BF11685268626004BF09182160D2
:104600005C60C7E738BD00BFB40A002070B5CD1CA0
:1046100025F0030508350C2D38BF0C25002D064666
:1046200001DBA94203D90C233360002070BD00F0E8
:104630007DF8214A1468214691B9204C23681BB9A2
:10464000304600F063F820602946304600F05EF8FE
:10465000431C24D10C233360304600F068F8E4E7B3
:104660000B685B1B18D40B2B0FD90B60CD50CC18EB
:10467000304600F05CF804F10B00231D20F0070029
:10468000C31AD3D05A42E250D0E78C424B6816BFCF
:10469000636013600C46EBE70C464968CCE7C41C2A
:1046A00024F00304A04205D0211A304600F02EF871
:1046B0000130CFD02560DBE7B40A0020B80A002023
:1046C000F8B5074614460E4621B91146BDE8F84034
:1046D000FFF79CBF22B9FFF74BFF25462846F8BDE0
:1046E00000F026F8A0420FD221463846FFF78EFF91
:1046F00005460028F2D031462246FFF715FF314625
:104700003846FFF735FFE9E73546E7E738B5064CA9
:104710000023054608462360FEF7B4FA431C02D185
:10472000236803B12B6038BD580C002070477047D8
:1047300051F8043C181F002BBCBF0B58C018704721
:10474000F8B500BFF8BC08BC9E467047F8B500BF7E
:08475000F8BC08BC9E4670474E
:1047580002030405060708090A0B0C0D0E0F1010BA
:104768000102030405060708090A0B0C0D0E0F10B9
:104778000000000000000000010203040607080909
:1047880000000000010203040A0D41444320467260
:10479800657175656E63793A2025640A0D0000001D
:1047A800555241210A0D0000000400003806010896
:1047B80040480008E00300008000000038120108AB
:1047C800005000087000000010000000B813010835
:1047D800E05000080C00000000080000E813010881
:1047E800F8500008C007000000010000E82B01088D
:1047F80078600008F000000020000000E82E0108A2
:10480800586200081800000000100000482F010836
:1048180088620008C00F000000020000485F01081D
:1048280008820008E0010000400000004865010817
:10483800C8850008380000000800001010000008B3
:104848001800001820000004280000143000000C94
:104858003800001C40000002480000125000000A06
:104868005800001A60000006680000167000000E6C
:104878007800001E800000018800001190000009E7
:1048880098000019A0000005A8000015B000000D50
:10489800B800001DC0000003C8000013D000000BC2
:1048A800D800001BE0000007E8000017F000000F28
:1048B800F800001F080180101001800818018018F6
:1048C80020018004280180143001800C3801801CEC
:1048D80040018002480180125001800A5801801A64
:1048E80060018006680180167001800E7801801EC4
:1048F800880180119001800998018019A001800524
:10490800A8018015B001800DB801801DC001800389
:10491800C8018013D001800BD801801BE0018007FB
:10492800E8018017F001800FF801801F080240108D
:1049380010024008180240182002400428024014BF
:104948003002400C3802401C480240125002400A13
:104958005802401A60024006680240167002400E73
:104968007802401E880240119002400998024019BE
:10497800A0024005A8024015B002400DB802401D33
:10498800C0024003C8024013D002400BD802401BAB
:10499800E0024007E8024017F002400FF802401F0B
:1049A8000803C0101003C0081803C0182003C0046F
:1049B8002803C0143003C00C3803C01C4803C012BD
:1049C8005003C00A5803C01A6003C0066803C01623
:1049D8007003C00E7803C01E8803C0119003C0097D
:1049E8009803C019A003C005A803C015B003C00DE3
:1049F800B803C01DC803C013D003C00BD803C01B25
:104A0800E003C007E803C017F003C00FF803C01F96
:104A18000804201010042008180420182804201462
:104A28003004200C3804201C480420125004200AAA
:104A38005804201A60042006680420167004200E0A
:104A48007804201E88042011900420099804201955
:104A5800A0042005A8042015B004200DB804201DCA
:104A6800C8042013D004200BD804201BE00420071E
:104A7800E8042017F004200FF804201F0805A010F0
:104A88001005A0081805A0182805A0143005A00CCA
:104A98003805A01C4805A0125005A00A5805A01A00
:104AA8006005A0066805A0167005A00E7805A01E72
:104AB8008805A0119005A0099805A019A805A015BA
:104AC800B005A00DB805A01DC805A013D005A00B02
:104AD800D805A01BE005A007E805A017F005A00F62
:104AE800F805A01F08066010100660081806601870
:104AF800280660143006600C3806601C48066012F0
:104B08005006600A5806601A680660167006600E3D
:104B18007806601E8806601190066009980660197C
:104B2800A8066015B006600DB806601DC8066013BB
:104B3800D006600BD806601BE0066007E806601721
:104B4800F006600FF806601F0807E0101007E0087D
:104B58001807E0182807E0143007E00C3807E01CB5
:104B68004807E0125007E00A5807E01A6807E016FD
:104B78007007E00E7807E01E8807E0119007E0094B
:104B88009807E019A807E015B007E00DB807E01D81
:104B9800C807E013D007E00BD807E01BE807E017C9
:104BA800F007E00FF807E01F0808101018081018A1
:104BB800280810143008100C3808101C4808101267
:104BC8005008100A5808101A680810167008100EB5
:104BD8007808101E880810119008100998081019F4
:104BE800A8081015B008100DB808101DC808101333
:104BF800D008100BD808101BE8081017F008100F81
:104C0800F808101F0809901018099018280990141E
:104C18003009900C3809901C480990125009900AE4
:104C28005809901A680990167009900E7809901E14
:104C38008809901198099019A8099015B009900D44
:104C4800B809901DC8099013D009900BD809901B7A
:104C5800E8099017F009900FF809901F080A5010FA
:104C6800180A5018280A5014300A500C380A501CD8
:104C7800480A5012580A501A680A5016700A500EFC
:104C8800780A501E880A5011980A5019A80A501517
:104C9800B00A500DB80A501DC80A5013D00A500B5C
:104CA800D80A501BE80A5017F00A500FF80A501F8C
:104CB800080BD010180BD018280BD014300BD00CC0
:104CC800380BD01C480BD012580BD01A680BD016D2
:104CD800700BD00E780BD01E880BD011980BD01902
:104CE800A80BD015B00BD00DB80BD01DC80BD01326
:104CF800D80BD01BE80BD017F00BD00FF80BD01F38
:104D0800080C3010180C3018280C3014380C301CD3
:104D1800480C3012580C301A680C3016700C300ED3
:104D2800780C301E880C3011980C3019A80C3015EE
:104D3800B00C300DB80C301DC80C3013D80C301B1B
:104D4800E80C3017F00C300FF80C301F080DB010BD
:104D5800180DB018280DB014380DB01C480DB0123D
:104D6800580DB01A680DB016700DB00E780DB01E43
:104D7800880DB011980DB019A80DB015B80DB01D5B
:104D8800C80DB013D80DB01BE80DB017F00DB00F5B
:104D9800F80DB01F080E7010180E7018280E701439
:104DA800380E701C480E7012580E701A680E701665
:104DB800780E701E880E7011980E7019A80E701556
:104DC800B80E701DC80E7013D80E701BE80E701741
:104DD800F00E700FF80E701F080FF010180FF01873
:104DE800280FF014380FF01C480FF012580FF01A63
:104DF800680FF016780FF01E880FF011980FF01951
:104E0800A80FF015B80FF01DC80FF013D80FF01B3E
:104E1800E80FF017F80FF01F1810081828100814DA
:104E28003810081C481008125810081A681008167C
:104E38007810081E8810081198100819A81008156D
:104E4800B810081DC8100813D810081BE810081758
:104E5800F810081F18118818281188143811881C90
:104E6800481188125811881A681188167811881EF6
:104E780098118819A8118815B811881DC8118813A8
:104E8800D811881BE8118817F811881F18124818BC
:104E9800281248143812481C5812481A6812481622
:104EA8007812481E98124819A8124815B812481DB9
:104EB800C8124813D812481BE8124817F812481F9E
:104EC8001813C8182813C8143813C81C5813C81A3C
:104ED8006813C8167813C81E9813C819A813C815DC
:104EE800B813C81DD813C81BE813C817F813C81F70
:104EF800181428183814281C5814281A6814281646
:104F08007814281E98142819A8142815B814281DD0
:104F1800D814281BE8142817F814281F1815A818DF
:104F28003815A81C5815A81A6815A8167815A81EAB
:104F38009815A819B815A81DD815A81BE815A817FD
:104F4800F815A81F181668183816681C5816681A15
:104F58007816681E98166819B816681DD816681B42
:104F6800E8166817F816681F1817E8183817E81CA5
:104F78005817E81A7817E81E9817E819B817E81D9F
:104F8800D817E81BF817E81F3818181C5818181AEB
:104F98007818181E98181819B818181DD818181B3A
:104FA800F818181F3819981C5819981A7819981E43
:104FB800B819981DD819981BF819981F381A581C31
:104FC800781A581EB81A581DD81A581BF81A581F9C
:104FD800381BD81C781BD81EB81BD81DF81BD81F27
:104FE800781C381EB81C381DF81C381F781DB81ED0
:104FF800F81DB81FF81E781F0800000210000001F5
:105008001800000320008000280080023000800182
:105018003800800348004002500040015800400317
:105028006000C0006800C0027000C0017800C003C2
:10503800880020029000200198002003A800A00208
:10504800B000A001B800A003C8006002D000600151
:10505800D8006003E800E002F000E001F800E00397
:105068000801100218011003280190023001900174
:105078003801900348015002580150036801D002DA
:105088007001D0017801D003880130029801300303
:10509800A801B002B801B003C8017002D8017003BA
:1050A800E801F002F801F003180208032802880258
:1050B80038028803580248036802C8027802C80305
:1050C80098022803B802A803D8026803F802E80384
:1050D800380398037803D803080040001000200024
:1050E8001800600028005000380070005800680060
:1050F80008000020100000101800003020000008F0
:10510800280000283000001838000038400000044B
:105118004800002450000014580000346000000CBF
:105128006800002C7000001C7800003C8000000221
:10513800880000229000001298000032A000000AA7
:10514800A800002AB000001AB800003AC000000603
:10515800C8000026D0000016D8000036E000000E77
:10516800E800002EF000001EF800003E08010021B3
:10517800100100111801003120010009280100293F
:1051880030010019380100394001000548010025A7
:1051980050010015580100356001000D6801002D0F
:1051A8007001001D7801003D800100038801002383
:1051B8009001001398010033A001000BA801002BF7
:1051C800B001001BB801003BC0010007C80100275F
:1051D800D0010017D8010037E001000FE801002FC7
:1051E800F001001FF801003F080280201002801023
:1051F8001802803020028008280280283002801897
:10520800380280384002800448028024500280140A
:10521800580280346002800C6802802C7002801C66
:105228007802803C880280229002801298028032A4
:10523800A002800AA802802AB002801AB802803A26
:10524800C0028006C8028026D0028016D8028036A6
:10525800E002800EE802802EF002801EF802803EF6
:10526800080380211003801118038031200380096E
:1052780028038029300380193803803940038005CA
:105288004803802550038015580380356003800D3E
:105298006803802D7003801D7803803D8803802378
:1052A8009003801398038033A003800BA803802BFE
:1052B800B003801BB803803BC0038007C803802766
:1052C800D0038017D8038037E003800FE803802FCE
:1052D800F003801FF803803F0804402010044010AA
:1052E800180440302004400828044028300440189E
:1052F80038044038480440245004401458044034CA
:105308006004400C6804402C7004401C7804403C45
:10531800880440229004401298044032A004400AB5
:10532800A804402AB004401AB804403AC004400611
:10533800C8044026D0044016D8044036E004400E85
:10534800E804402EF004401EF804403E08054021C1
:10535800100540111805403120054009280540294D
:105368003005401938054039480540255005401595
:10537800580540356005400D6805402D7005401DF5
:105388007805403D88054023900540139805403333
:10539800A005400BA805402BB005401BB805403BB5
:1053A800C0054007C8054027D0054017D805403735
:1053B800E005400FE805402FF005401FF805403F85
:1053C8000806C0201006C0101806C0302006C00805
:1053D8002806C0283006C0183806C0384806C02439
:1053E8005006C0145806C0346006C00C6806C02CAD
:1053F8007006C01C7806C03C8806C0229006C01201
:105408009806C032A006C00AA806C02AB006C01A6C
:10541800B806C03AC806C026D006C016D806C03698
:10542800E006C00EE806C02EF006C01EF806C03E14
:105438000807C0211007C0111807C0312007C0098C
:105448002807C0293007C0193807C0394807C025C0
:105458005007C0155807C0356007C00D6807C02D34
:105468007007C01D7807C03D8807C0239007C01388
:105478009807C033A007C00BA807C02BB007C01BF4
:10548800B807C03BC807C027D007C017D807C03720
:10549800E007C00FE807C02FF007C01FF807C03F9C
:1054A8000808202010082010180820302808202874
:1054B80030082018380820384808202450082014BC
:1054C800580820346008200C6808202C7008201C1C
:1054D8007808203C8808202290082012980820325A
:1054E800A008200AA808202AB008201AB808203ADC
:1054F800C8082026D0082016D8082036E008200E34
:10550800E808202EF008201EF808203E080920216F
:1055180010092011180920312809202930092019DB
:1055280038092039480920255009201558092035FF
:105538006009200D6809202D7009201D7809203D7B
:10554800880920239009201398092033A009200BEB
:10555800A809202BB009201BB809203BC80920271F
:10556800D0092017D8092037E009200FE809202F93
:10557800F009201FF809203F080AA020100AA010EF
:10558800180AA030280AA028300AA018380AA0381B
:10559800480AA024500AA014580AA034600AA00C93
:1055A800680AA02C700AA01C780AA03C880AA022CD
:1055B800900AA012980AA032A80AA02AB00AA01A33
:1055C800B80AA03AC80AA026D00AA016D80AA03657
:1055D800E00AA00EE80AA02EF00AA01EF80AA03ED3
:1055E800080BA021100BA011180BA031280BA02923
:1055F800300BA019380BA039480BA025500BA0156B
:10560800580BA035600BA00D680BA02D700BA01DCA
:10561800780BA03D880BA023900BA013980BA03308
:10562800A80BA02BB00BA01BB80BA03BC80BA02746
:10563800D00BA017D80BA037E00BA00FE80BA02FBA
:10564800F00BA01FF80BA03F080C6020100C601096
:10565800180C6030280C6028300C6018380C603842
:10566800480C6024500C6014580C6034680C602C92
:10567800700C601C780C603C880C6022900C6012E6
:10568800980C6032A80C602AB00C601AB80C603A0A
:10569800C80C6026D00C6016D80C6036E00C600E82
:1056A800E80C602EF00C601EF80C603E080D6021BE
:1056B800100D6011180D6031280D6029300D60192A
:1056C800380D6039480D6025500D6015580D60354E
:1056D800680D602D700D601D780D603D880D60238C
:1056E800900D6013980D6033A80D602BB00D601BF2
:1056F800B80D603BC80D6027D00D6017D80D603716
:10570800E00D600FE80D602FF00D601FF80D603F91
:10571800080EE020100EE010180EE030280EE028E9
:10572800300EE018380EE038480EE024500EE01431
:10573800580EE034680EE02C700EE01C780EE03C49
:10574800880EE022900EE012980EE032A80EE02AB1
:10575800B00EE01AB80EE03AC80EE026D00EE016F9
:10576800D80EE036E80EE02EF00EE01EF80EE03E11
:10577800080FE021100FE011180FE031280FE02981
:10578800300FE019380FE039480FE025500FE015C9
:10579800580FE035680FE02D700FE01D780FE03DE1
:1057A800880FE023900FE013980FE033A80FE02B49
:1057B800B00FE01BB80FE03BC80FE027D00FE01791
:1057C800D80FE037E80FE02FF00FE01FF80FE03FA9
:1057D8000810102018101030281010283010101839
:1057E8003810103848101024501010145810103465
:1057F8006810102C7010101C7810103C88101022A3
:105808009010101298101032A810102AB010101A08
:10581800B810103AC8101026D0101016D81010362C
:10582800E810102EF010101EF810103E081110216C
:105838001811103128111029301110193811103988
:105848004811102550111015581110356811102DD8
:105858007011101D7811103D88111023901110132C
:1058680098111033A811102BB011101BB811103B50
:10587800C8111027D0111017D8111037E811102FA0
:10588800F011101FF811103F0812902018129030D4
:105898002812902830129018381290384812902404
:1058A80050129014581290346812902C7012901C58
:1058B8007812903C8812902298129032A812902A5E
:1058C800B012901AB812903AC8129026D0129016B8
:1058D800D8129036E812902EF012901EF812903ED0
:1058E8000813902118139031281390293013901918
:1058F8003813903948139025501390155813903544
:105908006813902D7013901D7813903D8813902381
:1059180098139033A813902BB013901BB813903B97
:10592800C8139027D0139017D8139037E813902FE7
:10593800F013901FF813903F08145020181450309B
:10594800281450283014501838145038481450244B
:10595800581450346814502C7014501C7814503C4F
:105968008814502298145032A814502AB014501A8F
:10597800B814503AC8145026D0145016D8145036BB
:10598800E814502EF014501EF814503E08155021FB
:105998001815503128155029301550193815503917
:1059A80048155025581550356815502D7015501D3F
:1059B8007815503D8815502398155033A815502B4D
:1059C800B015501BB815503BC8155027D0155017A7
:1059D800D8155037E815502FF015501FF815503FBF
:1059E8000816D0201816D0302816D0283016D0180F
:1059F8003816D0384816D0245816D0346816D02C0B
:105A08007016D01C7816D03C8816D0229816D03242
:105A1800A816D02AB016D01AB816D03AC816D0266A
:105A2800D816D036E816D02EF016D01EF816D03E6E
:105A38000817D0211817D0312817D0293017D019B6
:105A48003817D0394817D0255817D0356817D02DB2
:105A58007017D01D7817D03D8817D0239817D033EA
:105A6800A817D02BB017D01BB817D03BC817D02712
:105A7800D817D037E817D02FF017D01FF817D03F16
:105A880008183020181830302818302838183038BE
:105A980048183024581830346818302C7018301CC6
:105AA8007818303C8818302298183032A818302AD4
:105AB800B018301AB818303AC8183026D818303606
:105AC800E818302EF018301EF818303E081930212A
